{
  "_format": "hh3-artifact-1",
  "contractName": "CreditNFT",
  "sourceName": "contracts/CreditNFT.sol",
  "abi": [
    {
      "inputs": [],
      "stateMutability": "nonpayable",
      "type": "constructor"
    },
    {
      "inputs": [
        {
          "internalType": "address",
          "name": "sender",
          "type": "address"
        },
        {
          "internalType": "uint256",
          "name": "tokenId",
          "type": "uint256"
        },
        {
          "internalType": "address",
          "name": "owner",
          "type": "address"
        }
      ],
      "name": "ERC721IncorrectOwner",
      "type": "error"
    },
    {
      "inputs": [
        {
          "internalType": "address",
          "name": "operator",
          "type": "address"
        },
        {
          "internalType": "uint256",
          "name": "tokenId",
          "type": "uint256"
        }
      ],
      "name": "ERC721InsufficientApproval",
      "type": "error"
    },
    {
      "inputs": [
        {
          "internalType": "address",
          "name": "approver",
          "type": "address"
        }
      ],
      "name": "ERC721InvalidApprover",
      "type": "error"
    },
    {
      "inputs": [
        {
          "internalType": "address",
          "name": "operator",
          "type": "address"
        }
      ],
      "name": "ERC721InvalidOperator",
      "type": "error"
    },
    {
      "inputs": [
        {
          "internalType": "address",
          "name": "owner",
          "type": "address"
        }
      ],
      "name": "ERC721InvalidOwner",
      "type": "error"
    },
    {
      "inputs": [
        {
          "internalType": "address",
          "name": "receiver",
          "type": "address"
        }
      ],
      "name": "ERC721InvalidReceiver",
      "type": "error"
    },
    {
      "inputs": [
        {
          "internalType": "address",
          "name": "sender",
          "type": "address"
        }
      ],
      "name": "ERC721InvalidSender",
      "type": "error"
    },
    {
      "inputs": [
        {
          "internalType": "uint256",
          "name": "tokenId",
          "type": "uint256"
        }
      ],
      "name": "ERC721NonexistentToken",
      "type": "error"
    },
    {
      "inputs": [],
      "name": "InvalidInitialization",
      "type": "error"
    },
    {
      "inputs": [],
      "name": "NotInitializing",
      "type": "error"
    },
    {
      "inputs": [
        {
          "internalType": "address",
          "name": "owner",
          "type": "address"
        }
      ],
      "name": "OwnableInvalidOwner",
      "type": "error"
    },
    {
      "inputs": [
        {
          "internalType": "address",
          "name": "account",
          "type": "address"
        }
      ],
      "name": "OwnableUnauthorizedAccount",
      "type": "error"
    },
    {
      "anonymous": false,
      "inputs": [
        {
          "indexed": true,
          "internalType": "address",
          "name": "owner",
          "type": "address"
        },
        {
          "indexed": true,
          "internalType": "address",
          "name": "approved",
          "type": "address"
        },
        {
          "indexed": true,
          "internalType": "uint256",
          "name": "tokenId",
          "type": "uint256"
        }
      ],
      "name": "Approval",
      "type": "event"
    },
    {
      "anonymous": false,
      "inputs": [
        {
          "indexed": true,
          "internalType": "address",
          "name": "owner",
          "type": "address"
        },
        {
          "indexed": true,
          "internalType": "address",
          "name": "operator",
          "type": "address"
        },
        {
          "indexed": false,
          "internalType": "bool",
          "name": "approved",
          "type": "bool"
        }
      ],
      "name": "ApprovalForAll",
      "type": "event"
    },
    {
      "anonymous": false,
      "inputs": [
        {
          "indexed": true,
          "internalType": "address",
          "name": "to",
          "type": "address"
        },
        {
          "indexed": true,
          "internalType": "uint256",
          "name": "tokenId",
          "type": "uint256"
        },
        {
          "indexed": false,
          "internalType": "string",
          "name": "tier",
          "type": "string"
        },
        {
          "indexed": false,
          "internalType": "uint256",
          "name": "score",
          "type": "uint256"
        }
      ],
      "name": "BadgeMinted",
      "type": "event"
    },
    {
      "anonymous": false,
      "inputs": [
        {
          "indexed": false,
          "internalType": "uint64",
          "name": "version",
          "type": "uint64"
        }
      ],
      "name": "Initialized",
      "type": "event"
    },
    {
      "anonymous": false,
      "inputs": [
        {
          "indexed": true,
          "internalType": "address",
          "name": "previousOwner",
          "type": "address"
        },
        {
          "indexed": true,
          "internalType": "address",
          "name": "newOwner",
          "type": "address"
        }
      ],
      "name": "OwnershipTransferred",
      "type": "event"
    },
    {
      "anonymous": false,
      "inputs": [
        {
          "indexed": true,
          "internalType": "address",
          "name": "oldRegistry",
          "type": "address"
        },
        {
          "indexed": true,
          "internalType": "address",
          "name": "newRegistry",
          "type": "address"
        }
      ],
      "name": "RegistryUpdated",
      "type": "event"
    },
    {
      "anonymous": false,
      "inputs": [
        {
          "indexed": true,
          "internalType": "address",
          "name": "from",
          "type": "address"
        },
        {
          "indexed": true,
          "internalType": "address",
          "name": "to",
          "type": "address"
        },
        {
          "indexed": true,
          "internalType": "uint256",
          "name": "tokenId",
          "type": "uint256"
        }
      ],
      "name": "Transfer",
      "type": "event"
    },
    {
      "inputs": [
        {
          "internalType": "address",
          "name": "to",
          "type": "address"
        },
        {
          "internalType": "uint256",
          "name": "tokenId",
          "type": "uint256"
        }
      ],
      "name": "approve",
      "outputs": [],
      "stateMutability": "nonpayable",
      "type": "function"
    },
    {
      "inputs": [
        {
          "internalType": "uint256",
          "name": "",
          "type": "uint256"
        }
      ],
      "name": "badges",
      "outputs": [
        {
          "internalType": "uint256",
          "name": "scoreAtMint",
          "type": "uint256"
        },
        {
          "internalType": "string",
          "name": "tier",
          "type": "string"
        },
        {
          "internalType": "uint256",
          "name": "timestamp",
          "type": "uint256"
        }
      ],
      "stateMutability": "view",
      "type": "function"
    },
    {
      "inputs": [
        {
          "internalType": "address",
          "name": "owner",
          "type": "address"
        }
      ],
      "name": "balanceOf",
      "outputs": [
        {
          "internalType": "uint256",
          "name": "",
          "type": "uint256"
        }
      ],
      "stateMutability": "view",
      "type": "function"
    },
    {
      "inputs": [
        {
          "internalType": "uint256",
          "name": "tokenId",
          "type": "uint256"
        }
      ],
      "name": "getApproved",
      "outputs": [
        {
          "internalType": "address",
          "name": "",
          "type": "address"
        }
      ],
      "stateMutability": "view",
      "type": "function"
    },
    {
      "inputs": [
        {
          "internalType": "uint256",
          "name": "tokenId",
          "type": "uint256"
        }
      ],
      "name": "getBadge",
      "outputs": [
        {
          "components": [
            {
              "internalType": "uint256",
              "name": "scoreAtMint",
              "type": "uint256"
            },
            {
              "internalType": "string",
              "name": "tier",
              "type": "string"
            },
            {
              "internalType": "uint256",
              "name": "timestamp",
              "type": "uint256"
            }
          ],
          "internalType": "struct ICreditNFT.CreditBadge",
          "name": "",
          "type": "tuple"
        }
      ],
      "stateMutability": "view",
      "type": "function"
    },
    {
      "inputs": [
        {
          "internalType": "address",
          "name": "user",
          "type": "address"
        }
      ],
      "name": "getHighestBadge",
      "outputs": [
        {
          "internalType": "string",
          "name": "tier",
          "type": "string"
        },
        {
          "internalType": "uint256",
          "name": "score",
          "type": "uint256"
        }
      ],
      "stateMutability": "view",
      "type": "function"
    },
    {
      "inputs": [
        {
          "internalType": "uint256",
          "name": "score",
          "type": "uint256"
        }
      ],
      "name": "getTierForScore",
      "outputs": [
        {
          "internalType": "string",
          "name": "",
          "type": "string"
        }
      ],
      "stateMutability": "pure",
      "type": "function"
    },
    {
      "inputs": [
        {
          "internalType": "address",
          "name": "user",
          "type": "address"
        },
        {
          "internalType": "string",
          "name": "tier",
          "type": "string"
        }
      ],
      "name": "hasTierBadge",
      "outputs": [
        {
          "internalType": "bool",
          "name": "",
          "type": "bool"
        }
      ],
      "stateMutability": "view",
      "type": "function"
    },
    {
      "inputs": [
        {
          "internalType": "address",
          "name": "_owner",
          "type": "address"
        },
        {
          "internalType": "address",
          "name": "_registry",
          "type": "address"
        }
      ],
      "name": "initialize",
      "outputs": [],
      "stateMutability": "nonpayable",
      "type": "function"
    },
    {
      "inputs": [
        {
          "internalType": "address",
          "name": "owner",
          "type": "address"
        },
        {
          "internalType": "address",
          "name": "operator",
          "type": "address"
        }
      ],
      "name": "isApprovedForAll",
      "outputs": [
        {
          "internalType": "bool",
          "name": "",
          "type": "bool"
        }
      ],
      "stateMutability": "view",
      "type": "function"
    },
    {
      "inputs": [
        {
          "internalType": "address",
          "name": "to",
          "type": "address"
        },
        {
          "internalType": "uint256",
          "name": "score",
          "type": "uint256"
        }
      ],
      "name": "mint",
      "outputs": [
        {
          "internalType": "uint256",
          "name": "tokenId",
          "type": "uint256"
        }
      ],
      "stateMutability": "nonpayable",
      "type": "function"
    },
    {
      "inputs": [],
      "name": "name",
      "outputs": [
        {
          "internalType": "string",
          "name": "",
          "type": "string"
        }
      ],
      "stateMutability": "view",
      "type": "function"
    },
    {
      "inputs": [],
      "name": "owner",
      "outputs": [
        {
          "internalType": "address",
          "name": "",
          "type": "address"
        }
      ],
      "stateMutability": "view",
      "type": "function"
    },
    {
      "inputs": [
        {
          "internalType": "uint256",
          "name": "tokenId",
          "type": "uint256"
        }
      ],
      "name": "ownerOf",
      "outputs": [
        {
          "internalType": "address",
          "name": "",
          "type": "address"
        }
      ],
      "stateMutability": "view",
      "type": "function"
    },
    {
      "inputs": [],
      "name": "registry",
      "outputs": [
        {
          "internalType": "address",
          "name": "",
          "type": "address"
        }
      ],
      "stateMutability": "view",
      "type": "function"
    },
    {
      "inputs": [],
      "name": "renounceOwnership",
      "outputs": [],
      "stateMutability": "nonpayable",
      "type": "function"
    },
    {
      "inputs": [
        {
          "internalType": "address",
          "name": "from",
          "type": "address"
        },
        {
          "internalType": "address",
          "name": "to",
          "type": "address"
        },
        {
          "internalType": "uint256",
          "name": "tokenId",
          "type": "uint256"
        }
      ],
      "name": "safeTransferFrom",
      "outputs": [],
      "stateMutability": "nonpayable",
      "type": "function"
    },
    {
      "inputs": [
        {
          "internalType": "address",
          "name": "from",
          "type": "address"
        },
        {
          "internalType": "address",
          "name": "to",
          "type": "address"
        },
        {
          "internalType": "uint256",
          "name": "tokenId",
          "type": "uint256"
        },
        {
          "internalType": "bytes",
          "name": "data",
          "type": "bytes"
        }
      ],
      "name": "safeTransferFrom",
      "outputs": [],
      "stateMutability": "nonpayable",
      "type": "function"
    },
    {
      "inputs": [
        {
          "internalType": "address",
          "name": "operator",
          "type": "address"
        },
        {
          "internalType": "bool",
          "name": "approved",
          "type": "bool"
        }
      ],
      "name": "setApprovalForAll",
      "outputs": [],
      "stateMutability": "nonpayable",
      "type": "function"
    },
    {
      "inputs": [
        {
          "internalType": "address",
          "name": "_registry",
          "type": "address"
        }
      ],
      "name": "setRegistry",
      "outputs": [],
      "stateMutability": "nonpayable",
      "type": "function"
    },
    {
      "inputs": [
        {
          "internalType": "bytes4",
          "name": "interfaceId",
          "type": "bytes4"
        }
      ],
      "name": "supportsInterface",
      "outputs": [
        {
          "internalType": "bool",
          "name": "",
          "type": "bool"
        }
      ],
      "stateMutability": "view",
      "type": "function"
    },
    {
      "inputs": [],
      "name": "symbol",
      "outputs": [
        {
          "internalType": "string",
          "name": "",
          "type": "string"
        }
      ],
      "stateMutability": "view",
      "type": "function"
    },
    {
      "inputs": [
        {
          "internalType": "uint256",
          "name": "tokenId",
          "type": "uint256"
        }
      ],
      "name": "tokenURI",
      "outputs": [
        {
          "internalType": "string",
          "name": "",
          "type": "string"
        }
      ],
      "stateMutability": "view",
      "type": "function"
    },
    {
      "inputs": [],
      "name": "totalMinted",
      "outputs": [
        {
          "internalType": "uint256",
          "name": "",
          "type": "uint256"
        }
      ],
      "stateMutability": "view",
      "type": "function"
    },
    {
      "inputs": [
        {
          "internalType": "address",
          "name": "from",
          "type": "address"
        },
        {
          "internalType": "address",
          "name": "to",
          "type": "address"
        },
        {
          "internalType": "uint256",
          "name": "tokenId",
          "type": "uint256"
        }
      ],
      "name": "transferFrom",
      "outputs": [],
      "stateMutability": "nonpayable",
      "type": "function"
    },
    {
      "inputs": [
        {
          "internalType": "address",
          "name": "newOwner",
          "type": "address"
        }
      ],
      "name": "transferOwnership",
      "outputs": [],
      "stateMutability": "nonpayable",
      "type": "function"
    },
    {
      "inputs": [
        {
          "internalType": "address",
          "name": "",
          "type": "address"
        },
        {
          "internalType": "uint256",
          "name": "",
          "type": "uint256"
        }
      ],
      "name": "userBadges",
      "outputs": [
        {
          "internalType": "uint256",
          "name": "",
          "type": "uint256"
        }
      ],
      "stateMutability": "view",
      "type": "function"
    },
    {
      "inputs": [
        {
          "internalType": "address",
          "name": "",
          "type": "address"
        }
      ],
      "name": "userHighestTier",
      "outputs": [
        {
          "internalType": "uint256",
          "name": "",
          "type": "uint256"
        }
      ],
      "stateMutability": "view",
      "type": "function"
    }
  ],
  "bytecode": "0x6080806040523460aa575f516020612e8d5f395f51905f525460ff8160401c16609b576002600160401b03196001600160401b038216016049575b604051612dde90816100af8239f35b6001600160401b0319166001600160401b039081175f516020612e8d5f395f51905f525581527fc7f505b2f371ae2175ee4913f4499e1f2633a7b5936321eed1cdaeb6115181d290602090a15f80603a565b63f92ee8a960e01b5f5260045ffd5b5f80fdfe6080806040526004361015610012575f80fd5b5f3560e01c90816301ffc9a714611e265750806306fdde0314611d7c578063081812fc14611d33578063095ea7b314611c475780631899c6eb14611c2857806323b872dd14611c1157806340c10f191461166857806342842e0e1461163957806343111c4c14611608578063485cc9551461114a5780636352211e1461111a5780636a88e3fc146110e257806370a0823114611093578063715018a61461102c5780637b103999146110055780638d83862214610f6d5780638da5cb5b14610f3957806395d89b4114610e4357806398e36d8b14610deb5780639e6d457114610d7b578063a22cb46514610ce3578063a2309ff814610cc6578063a91ee0dc14610c0f578063b88d4fde14610ba3578063c87b56dd14610223578063df91cc23146101cb578063e985e9c51461017f5763f2fde38b14610150575f80fd5b3461017b57602036600319011261017b5761017961016c611eb5565b61017461275d565b61268b565b005b5f80fd5b3461017b57604036600319011261017b57610198611eb5565b6101a96101a3611ecb565b91611f6f565b9060018060a01b03165f52602052602060ff60405f2054166040519015158152f35b3461017b57604036600319011261017b576101e4611eb5565b6001600160a01b03165f9081526002602052604090208054602435919082101561017b576020916102149161210f565b90549060031b1c604051908152f35b3461017b57602036600319011261017b57600435610240816126fc565b505f52600160205260405f2060405161025881611fdf565b815481526102686001830161201d565b906020810192828452600201549160408201928352610286906128c6565b91835192825161029590612a44565b604080517f3c73766720786d6c6e733d22687474703a2f2f7777772e77332e6f72672f32306020808301919091527f30302f737667222076696577426f783d223020302034303020343030223e000092820192909252651e3232b3399f60d11b605e8201527f3c6c696e6561724772616469656e742069643d226267222078313d223025222060648201527f79313d223025222078323d2231303025222079323d2231303025223e0000000060848201527f3c73746f70206f66667365743d22302522207374796c653d2273746f702d636f60a082018190526d3637b91d119823189b992091179f60911b60c08301527f3c73746f70206f66667365743d223130302522207374796c653d2273746f702d60ce8301526f31b7b637b91d1198a2991c99a111179f60811b60ee830152701e17b634b732b0b923b930b234b2b73a1f60791b60fe8301527f3c6c696e6561724772616469656e742069643d226261646765222078313d223061010f8301527f25222079313d223025222078323d2231303025222079323d2231303025223e0061012f83015261014e820152633637b91d60e11b61016e8201528351909687949092810191808361017288015e6211179f60e91b610172918701918201527f3c73746f70206f66667365743d223130302522207374796c653d2273746f702d6101758201526531b7b637b91d60d11b610195820152815190818461019b83015e731db9ba37b816b7b830b1b4ba3c9d18171b91179f60611b61019b9290910191820152701e17b634b732b0b923b930b234b2b73a1f60791b6101af820152661e17b232b3399f60c91b6101c08201527f3c726563742077696474683d2234303022206865696768743d223430302220666101c78201526f34b6361e913ab9361411b1339491179f60811b6101e78201527f3c636972636c652063783d22323030222063793d223136302220723d223830226101f78201527f2066696c6c3d2275726c282362616467652922206f7061636974793d22302e396102178201526211179f60e91b6102378201527f3c636972636c652063783d22323030222063793d223136302220723d2237302261023a82015274103334b6361e913737b732911039ba3937b5b29e9160591b61025a82015290519161017282019183919061026f015e73111039ba3937b5b296bbb4b23a341e911911179f60611b60fd92909101918201527f3c706f6c79676f6e20706f696e74733d223230302c313030203231302c3134306101118201527f203235302c313430203231382c313635203233302c323035203230302c3138306101318201527f203137302c323035203138322c313635203135302c313430203139302c3134306101518201527111103334b6361e91119823189b992091179f60711b6101718201527f3c7465787420783d223230302220793d223238302220666f6e742d66616d696c6101838201527f793d22417269616c2c2073616e732d73657269662220666f6e742d73697a653d6101a38201527f223332222066696c6c3d2277686974652220746578742d616e63686f723d226d6101c38201527f6964646c652220666f6e742d7765696768743d22626f6c64223e0000000000006101e382015281519160298201918391602001906101fd015e0160d4016101008101661e17ba32bc3a1f60c91b905261010781017f3c7465787420783d223230302220793d223332302220666f6e742d66616d696c905261012781017f793d22417269616c2c2073616e732d73657269662220666f6e742d73697a653d905261014781017f223230222066696c6c3d22233934413342382220746578742d616e63686f723d90526f01136b4b2323632911f29b1b7b9329d160851b6101678201528151602081930161017783015e661e17ba32bc3a1f60c91b91016101778101919091527f3c7465787420783d223230302220793d223336302220666f6e742d66616d696c61017e8201527f793d22417269616c2c2073616e732d73657269662220666f6e742d73697a653d61019e8201527f223134222066696c6c3d22233634373438422220746578742d616e63686f723d6101be8201527f226d6964646c65223e4372656469744e65742050726f746f636f6c3c2f7465786101de820152613a1f60f11b6101fe820152651e17b9bb339f60d11b610200820152036101e6810184526108e3906102060184611ffb565b8351926108ef906129ab565b935191516108fc90612a44565b905161090790612a44565b916040519485947303d913730b6b2911d101121b932b234ba2732ba160651b602087015280516020819201603488015e670810985919d9488b60c21b6034918701918201527f226465736372697074696f6e223a2022536f756c626f756e6420637265646974603c8201527f20616368696576656d656e742062616467652066726f6d204372656469744e65605c8201526b1d08141c9bdd1bd8dbdb088b60a21b607c8201527f22696d616765223a2022646174613a696d6167652f7376672b786d6c3b626173608882015263194d8d0b60e21b60a8820152815191829060200160ac83015e0160340161088b60f21b60788201526e2261747472696275746573223a205b60881b607a820152608981017f7b2274726169745f74797065223a202254696572222c202276616c7565223a209052601160f91b60a98201528151602081930160aa83015e0160780162089f4b60ea1b6032820152603581017f7b2274726169745f74797065223a202253636f7265206174204d696e74222c209052680113b30b63ab2911d160bd1b605582015281516020819301605e83015e01603201602c8101611f4b60f21b9052602e81017f7b2274726169745f74797065223a20224d696e746564204174222c202276616c90526403ab2911d160dd1b604e82015281516020819301605383015e01602c0160278101607d60f81b905260288101615d7d60f01b905203602701601c1981018252600301610b2a9082611ffb565b610b33906129ab565b6040518091602082017f646174613a6170706c69636174696f6e2f6a736f6e3b6261736536342c000000905280516020819201603d84015e8101603d81015f905203603d01601f1981018252610b899082611ffb565b60405180916020825260208201610b9f91611e91565b0390f35b3461017b57608036600319011261017b57610bbc611eb5565b610bc4611ecb565b906044356064359267ffffffffffffffff841161017b573660238501121561017b57610bfd6101799436906024816004013591016120d9565b92610c09838383612204565b33612790565b3461017b57602036600319011261017b57610c28611eb5565b610c3061275d565b6001600160a01b03168015610c81575f80546001600160a01b03198116831782556001600160a01b0316907f482b97c53e48ffa324a976e2738053e9aff6eee04d8aac63b10e19411d869b829080a3005b60405162461bcd60e51b815260206004820152601760248201527f4372656469744e46543a207a65726f20616464726573730000000000000000006044820152606490fd5b3461017b575f36600319011261017b576020600454604051908152f35b3461017b57604036600319011261017b57610cfc611eb5565b6024359081151580920361017b576001600160a01b0316908115610d6857610d2333611f6f565b825f5260205260405f2060ff1981541660ff83161790556040519081527f17307eab39ab6107e8899845ad3d59bd9653f200f220920489ca2b5937696c3160203392a3005b50630b61174360e31b5f5260045260245ffd5b3461017b57604036600319011261017b57610d94611eb5565b60243567ffffffffffffffff811161017b573660238201121561017b57806004013567ffffffffffffffff811161017b57366024828401011161017b576020926024610de1930190612538565b6040519015158152f35b3461017b57602036600319011261017b576004355f52600160205260405f2080546002610e1a6001840161201d565b920154610e396040519384938452606060208501526060840190611e91565b9060408301520390f35b3461017b575f36600319011261017b576040515f5f516020612d695f395f51905f5254610e6f81611fa7565b8084529060018116908115610f155750600114610eab575b610b9f83610e9781850382611ffb565b604051918291602083526020830190611e91565b5f516020612d695f395f51905f525f9081527ff4bad0a69248f59680a4f2b3000328cec71a413447c96781cfe5996daa8c456e939250905b808210610efb57509091508101602001610e97610e87565b919260018160209254838588010152019101909291610ee3565b60ff191660208086019190915291151560051b84019091019150610e979050610e87565b3461017b575f36600319011261017b575f516020612d095f395f51905f52546040516001600160a01b039091168152602090f35b3461017b57602036600319011261017b575f60408051610f8c81611fdf565b8281526060602082015201526004355f52600160205260405f20604051610fb281611fdf565b815481526002610fc46001840161201d565b9260208301938452015460408201908152610ffa6040519384936020855251602085015251606060408501526080840190611e91565b905160608301520390f35b3461017b575f36600319011261017b575f546040516001600160a01b039091168152602090f35b3461017b575f36600319011261017b5761104461275d565b5f516020612d095f395f51905f5280546001600160a01b031981169091555f906001600160a01b03167f8be0079c531659141344cd1fd0a4f28419497f9722a3daafe3b4186f6b6457e08280a3005b3461017b57602036600319011261017b576110ac611eb5565b6001600160a01b038116156110cf576110c6602091611f37565b54604051908152f35b6322718ad960e21b5f525f60045260245ffd5b3461017b57602036600319011261017b576001600160a01b03611103611eb5565b165f526003602052602060405f2054604051908152f35b3461017b57602036600319011261017b5760206111386004356126fc565b6040516001600160a01b039091168152f35b3461017b57604036600319011261017b57611163611eb5565b61116b611ecb565b905f516020612d495f395f51905f525460ff8160401c16159167ffffffffffffffff821680159081611600575b60011490816115f6575b1590816115ed575b506115de5767ffffffffffffffff1982166001175f516020612d495f395f51905f52556111e891836115b2575b506111e0612bc5565b610174612bc5565b6040908151926111f88385611ffb565b600f84526e4372656469744e657420426164676560881b60208501528251936112218486611ffb565b600685526510d49151125560d21b602086015261123c612bc5565b611244612bc5565b80519067ffffffffffffffff821161148c57819061126f5f516020612ce95f395f51905f5254611fa7565b601f8111611534575b50602090601f83116001146114ab575f926114a0575b50508160011b915f199060031b1c1916175f516020612ce95f395f51905f52555b835167ffffffffffffffff811161148c576112d75f516020612d695f395f51905f5254611fa7565b601f811161141d575b50602094601f82116001146113a2579481929394955f92611397575b50508160011b915f199060031b1c1916175f516020612d695f395f51905f52555b60018060a01b03166bffffffffffffffffffffffff60a01b5f5416175f5561134157005b60207fc7f505b2f371ae2175ee4913f4499e1f2633a7b5936321eed1cdaeb6115181d29168ff0000000000000000195f516020612d495f395f51905f5254165f516020612d495f395f51905f52555160018152a1005b0151905085806112fc565b601f198216955f516020612d695f395f51905f525f52805f20915f5b888110611405575083600195969798106113ed575b505050811b015f516020612d695f395f51905f525561131d565b01515f1960f88460031b161c191690558580806113d3565b919260206001819286850151815501940192016113be565b5f516020612d695f395f51905f525f527ff4bad0a69248f59680a4f2b3000328cec71a413447c96781cfe5996daa8c456e601f830160051c81019160208410611482575b601f0160051c01905b81811061147757506112e0565b5f815560010161146a565b9091508190611461565b634e487b7160e01b5f52604160045260245ffd5b01519050868061128e565b5f516020612ce95f395f51905f525f9081525f516020612d895f395f51905f529350601f198516905b81811061151c5750908460019594939210611504575b505050811b015f516020612ce95f395f51905f52556112af565b01515f1960f88460031b161c191690558680806114ea565b929360206001819287860151815501950193016114d4565b9091505f516020612ce95f395f51905f525f52601f830160051c5f516020612d895f395f51905f5201906020841061159d575b90601f8493920160051c5f516020612d895f395f51905f5201905b81811061158f5750611278565b5f8155849350600101611582565b5f516020612d895f395f51905f529150611567565b68ffffffffffffffffff191668010000000000000001175f516020612d495f395f51905f5255846111d7565b63f92ee8a960e01b5f5260045ffd5b905015856111aa565b303b1591506111a2565b849150611198565b3461017b57602036600319011261017b57611629611624611eb5565b61245f565b90610b9f60405192839283611f1b565b3461017b5761017961164a36611ee1565b906040519261165a602085611ffb565b5f8452610c09838383612204565b3461017b57604036600319011261017b57611681611eb5565b5f5460243591906001600160a01b03163303611bc2576116a0826121a5565b916116aa8161272b565b9060018060a01b03831693845f52600360205260405f2054831115611b6a57600454925f198414611b5657600184016004556040516116e881611fdf565b838152602081018381526040820190428252865f52600160205260405f209251835560018301905180519067ffffffffffffffff821161148c5761172c8354611fa7565b601f8111611b11575b50602090601f8311600114611aaa576002949392915f9183611a9f575b50508160011b915f199060031b1c19161790555b51910155855f52600260205260405f2080546801000000000000000081101561148c576117989160018201815561210f565b81549060031b9086821b915f19901b1916179055855f52600360205260405f2055602093604051906117ca8683611ffb565b5f82528615611a8c576001600160a01b036117e486612b8c565b16151580611a84575b611a2f576117fa85612b8c565b6001600160a01b038116801515919087908a90846119f3575b61181c86611f37565b805460010190555f8381527f80bb2b638cc20bc4d0a60d66940f3ab4a00c1d7b313497ca82fb0b4ab00793028c526040812080546001600160a01b031916841790557fddf252ad1be2c89b69c2b068fc378daa952ba7f163c4a11628f55a4df523b3ef9080a4506119e0573b6118cd575b507f067ded8e7caec1ffe7635756e4427008bd694dd35bb2bcb0465fe3efa683f3e3839286926118c260405192839283611f1b565b0390a3604051908152f35b846119069160405180938192630a85bd0160e11b83523360048401525f6024840152886044840152608060648401526084830190611e91565b03815f8a5af15f91816119a0575b506119695785853d15611961573d9061192c826120bd565b9161193a6040519384611ffb565b82523d5f8284013e5b8151918261195e5783633250574960e11b5f5260045260245ffd5b01fd5b606090611943565b939492936001600160e01b03191663757a42ff60e11b0161198d578392949361188d565b82633250574960e11b5f5260045260245ffd5b9091508581813d83116119d9575b6119b88183611ffb565b8101031261017b57516001600160e01b03198116810361017b579087611914565b503d6119ae565b6339e3563760e11b5f525f60045260245ffd5b5f8381525f516020612d295f395f51905f526020526040902080546001600160a01b0319169055611a2384611f37565b80545f19019055611813565b60405162461bcd60e51b815260048101879052602760248201527f4372656469744e46543a20736f756c626f756e64202d206e6f6e2d7472616e7360448201526666657261626c6560c81b6064820152608490fd5b5060016117ed565b633250574960e11b5f525f60045260245ffd5b015190508c80611752565b90601f19831691845f52815f20925f5b818110611af9575091600193918560029897969410611ae1575b505050811b019055611766565b01515f1960f88460031b161c191690558c8080611ad4565b92936020600181928786015181550195019301611aba565b835f5260205f20601f840160051c81019160208510611b4c575b601f0160051c01905b818110611b415750611735565b5f8155600101611b34565b9091508190611b2b565b634e487b7160e01b5f52601160045260245ffd5b60405162461bcd60e51b815260206004820152602a60248201527f4372656469744e46543a20616c726561647920686173207468697320746965726044820152691037b9103434b3b432b960b11b6064820152608490fd5b60405162461bcd60e51b815260206004820152602160248201527f4372656469744e46543a2063616c6c6572206973206e6f7420726567697374726044820152607960f81b6064820152608490fd5b3461017b57610179611c2236611ee1565b91612204565b3461017b57602036600319011261017b57610b9f610e976004356121a5565b3461017b57604036600319011261017b57611c60611eb5565b602435611c6c816126fc565b33151580611d20575b80611cfd575b611cea5781906001600160a01b0384811691167f8c5be1e5ebec7d5bd14f71427d1e84f3dd0314c0f7b2291e5b200ac8c7c3b9255f80a45f9081525f516020612d295f395f51905f526020526040902080546001600160a01b0319166001600160a01b03909216919091179055005b63a9fbf51f60e01b5f523360045260245ffd5b50611d0781611f6f565b335f908152602091909152604090205460ff1615611c7b565b506001600160a01b038116331415611c75565b3461017b57602036600319011261017b576020611138600435611d55816126fc565b505f9081525f516020612d295f395f51905f5260205260409020546001600160a01b031690565b3461017b575f36600319011261017b576040515f5f516020612ce95f395f51905f5254611da881611fa7565b8084529060018116908115610f155750600114611dcf57610b9f83610e9781850382611ffb565b5f516020612ce95f395f51905f525f9081525f516020612d895f395f51905f52939250905b808210611e0c57509091508101602001610e97610e87565b919260018160209254838588010152019101909291611df4565b3461017b57602036600319011261017b576004359063ffffffff60e01b821680920361017b576020916380ac58cd60e01b8114908115611e80575b8115611e6f575b5015158152f35b6301ffc9a760e01b14905083611e68565b635b5e139f60e01b81149150611e61565b805180835260209291819084018484015e5f828201840152601f01601f1916010190565b600435906001600160a01b038216820361017b57565b602435906001600160a01b038216820361017b57565b606090600319011261017b576004356001600160a01b038116810361017b57906024356001600160a01b038116810361017b579060443590565b929190611f32602091604086526040860190611e91565b930152565b6001600160a01b03165f9081527f80bb2b638cc20bc4d0a60d66940f3ab4a00c1d7b313497ca82fb0b4ab00793036020526040902090565b6001600160a01b03165f9081527f80bb2b638cc20bc4d0a60d66940f3ab4a00c1d7b313497ca82fb0b4ab00793056020526040902090565b90600182811c92168015611fd5575b6020831014611fc157565b634e487b7160e01b5f52602260045260245ffd5b91607f1691611fb6565b6060810190811067ffffffffffffffff82111761148c57604052565b90601f8019910116810190811067ffffffffffffffff82111761148c57604052565b9060405191825f82549261203084611fa7565b808452936001811690811561209b5750600114612057575b5061205592500383611ffb565b565b90505f9291925260205f20905f915b81831061207f575050906020612055928201015f612048565b6020919350806001915483858901015201910190918492612066565b90506020925061205594915060ff191682840152151560051b8201015f612048565b67ffffffffffffffff811161148c57601f01601f191660200190565b9291926120e5826120bd565b916120f36040519384611ffb565b82948184528183011161017b578281602093845f960137010152565b8054821015612124575f5260205f2001905f90565b634e487b7160e01b5f52603260045260245ffd5b60405190612147604083611ffb565b6005825264456c69746560d81b6020830152565b6040519061216a604083611ffb565b6007825266151c9d5cdd195960ca1b6020830152565b6040519061218f604083611ffb565b6007825266213ab4b63232b960c91b6020830152565b6102588110156121fb5761012c8110156121f257606411156121e7576040516121cf604082611ffb565b60088152672732bbb1b7b6b2b960c11b602082015290565b6121ef612180565b90565b506121ef61215b565b506121ef612138565b9091906001600160a01b0383168015611a8c576001600160a01b0361222884612b8c565b16151580612443575b6123ee578261223f81612b8c565b913315158061233b575b506001600160a01b0383169561226390876122ff57611f37565b60018154019055815f527f80bb2b638cc20bc4d0a60d66940f3ab4a00c1d7b313497ca82fb0b4ab007930260205260405f20816bffffffffffffffffffffffff60a01b825416179055857fddf252ad1be2c89b69c2b068fc378daa952ba7f163c4a11628f55a4df523b3ef5f80a4506001600160a01b03168083036122e757505050565b6364283d7b60e01b5f5260045260245260445260645ffd5b5f8481525f516020612d295f395f51905f526020526040902080546001600160a01b031916905561232f85611f37565b80545f19019055611f37565b90915080612388575b156123515783905f612249565b836001600160a01b03831661237257637e27328960e01b5f5260045260245ffd5b63177e802f60e01b5f523360045260245260445ffd5b506001600160a01b038216331480156123cc575b8061234457505f8481525f516020612d295f395f51905f5260205260409020546001600160a01b03163314612344565b506123d682611f6f565b335f908152602091909152604090205460ff1661239c565b60405162461bcd60e51b815260206004820152602760248201527f4372656469744e46543a20736f756c626f756e64202d206e6f6e2d7472616e7360448201526666657261626c6560c81b6064820152608490fd5b506001612231565b80518210156121245760209160051b010190565b60018060a01b03165f52600260205260405f20604051808260208294549384815201905f5260205f20925f5b81811061251f5750506124a092500382611ffb565b8051156124fa5780515f198101908111611b56576124bd9161244b565b515f52600160205260405f20906040516124d681611fdf565b8254815260026124e86001850161201d565b93846020840152015460408201525190565b50604051612509604082611ffb565b60048152634e6f6e6560e01b6020820152905f90565b845483526001948501948694506020909301920161248b565b91909160018060a01b03165f52600260205260405f2091604051808460208296549384815201905f5260205f20925f5b81811061267257505061257d92500384611ffb565b5f5b835181101561266a57612592818561244b565b515f526001602052600160405f20016040515f91818154936125b385611fa7565b9283835260208301956001811690815f1461264b5750600114612609575b506125de92500382611ffb565b5190206125ec3685856120d9565b60208151910120146126005760010161257f565b50505050600190565b9150505f528160205f20915f925b81841061262f57505060206125de928201015f6125d1565b6020919250806001915483868801015201920191908391612617565b60ff19168752506125de93151560051b830160200191505f90506125d1565b505050505f90565b8454835260019485019488945060209093019201612568565b6001600160a01b031680156126e9575f516020612d095f395f51905f5280546001600160a01b0319811683179091556001600160a01b03167f8be0079c531659141344cd1fd0a4f28419497f9722a3daafe3b4186f6b6457e05f80a3565b631e4fbdf760e01b5f525f60045260245ffd5b61270581612b8c565b906001600160a01b03821615612719575090565b637e27328960e01b5f5260045260245ffd5b6102588110156127575761012c811015612751576064111561274c57600190565b600290565b50600390565b50600490565b5f516020612d095f395f51905f52546001600160a01b0316330361277d57565b63118cdaa760e01b5f523360045260245ffd5b823b61279e575b5050505050565b604051630a85bd0160e11b81526001600160a01b0391821660048201529181166024830152604482019390935260806064820152911691602090829081906127ea906084830190611e91565b03815f865af15f9181612881575b5061284d57503d15612846573d61280e816120bd565b9061281c6040519283611ffb565b81523d5f602083013e5b805190816128415782633250574960e11b5f5260045260245ffd5b602001fd5b6060612826565b6001600160e01b03191663757a42ff60e11b0161286f57505f80808080612797565b633250574960e11b5f5260045260245ffd5b9091506020813d6020116128be575b8161289d60209383611ffb565b8101031261017b57516001600160e01b03198116810361017b57905f6127f8565b3d9150612890565b805190602081019182206128d8612138565b602081519101201461298457805182206128f061215b565b602081519101201461295d57519020612907612180565b602081519101201461293857604051612921604082611ffb565b60078152660233642373238360cc1b602082015290565b604051612946604082611ffb565b600781526611a1a21ba3199960c91b602082015290565b505060405161296d604082611ffb565b60078152660234330433043360cc1b602082015290565b5050604051612994604082611ffb565b60078152660234646443730360cc1b602082015290565b6040516121ef916129bd606083611ffb565b604082527f4142434445464748494a4b4c4d4e4f505152535455565758595a61626364656660208301527f6768696a6b6c6d6e6f707172737475767778797a303132333435363738392b2f6040830152612bf0565b90612a1c826120bd565b612a296040519182611ffb565b8281528092612a3a601f19916120bd565b0190602036910137565b805f9172184f03e93ff9f4daa797ed6e38ed64bf6a1f0160401b821015612b69575b806d04ee2d6d415b85acef8100000000600a921015612b4e575b662386f26fc10000811015612b3a575b6305f5e100811015612b29575b612710811015612b1a575b6064811015612b0c575b1015612b01575b600a6021612ac960018501612a12565b938401015b5f1901916f181899199a1a9b1b9c1cb0b131b232b360811b8282061a8353048015612afc57600a9091612ace565b505090565b600190910190612ab9565b606460029104930192612ab2565b61271060049104930192612aa8565b6305f5e10060089104930192612a9d565b662386f26fc1000060109104930192612a90565b6d04ee2d6d415b85acef810000000060209104930192612a80565b506040915072184f03e93ff9f4daa797ed6e38ed64bf6a1f0160401b8104612a66565b5f9081527f80bb2b638cc20bc4d0a60d66940f3ab4a00c1d7b313497ca82fb0b4ab007930260205260409020546001600160a01b031690565b60ff5f516020612d495f395f51905f525460401c1615612be157565b631afcd79f60e31b5f5260045ffd5b919091805115612cd157805160028101809111611b565760039004600281901b906001600160fe1b03811603611b5657612c2990612a12565b90602082019080815182019560208701908151925f83525b888110612c835750506003939495965052510680600114612c7157600214612c67575090565b603d905f19015390565b50603d90815f19820153600119015390565b600360049199969901986001603f8b5182828260121c16870101518453828282600c1c16870101518385015382828260061c1687010151600285015316840101516003820153019497612c41565b509050604051612ce2602082611ffb565b5f81529056fe80bb2b638cc20bc4d0a60d66940f3ab4a00c1d7b313497ca82fb0b4ab00793009016d09d72d40fdae2fd8ceac6b6234c7706214fd39c1cd1e609a0528c19930080bb2b638cc20bc4d0a60d66940f3ab4a00c1d7b313497ca82fb0b4ab0079304f0c57e16840df040f15088dc2f81fe391c3923bec73e23a9662efc9c229c6a0080bb2b638cc20bc4d0a60d66940f3ab4a00c1d7b313497ca82fb0b4ab007930137c58c799b6609234b945e882912ee9ad34948a1dfaa20a97485e1a7752bbf81a2646970667358221220cd20510a27ed19209d2481410dcfc8c870c478c1a7fe81f71538a109535cc03064736f6c634300081c0033f0c57e16840df040f15088dc2f81fe391c3923bec73e23a9662efc9c229c6a00",
  "linkReferences": {},
  "deployedLinkReferences": {},
  "immutableReferences": {},
  "inputSourceName": "project/contracts/CreditNFT.sol",
  "buildInfoId": "solc-0_8_28-a74bef0a4d784ac7d6b07fb016b60b3e4240e296"
}