{
  "_format": "hh3-artifact-1",
  "contractName": "CreditRegistry",
  "sourceName": "contracts/CreditRegistry.sol",
  "abi": [
    {
      "inputs": [],
      "stateMutability": "nonpayable",
      "type": "constructor"
    },
    {
      "inputs": [],
      "name": "InvalidInitialization",
      "type": "error"
    },
    {
      "inputs": [],
      "name": "NotInitializing",
      "type": "error"
    },
    {
      "inputs": [
        {
          "internalType": "address",
          "name": "owner",
          "type": "address"
        }
      ],
      "name": "OwnableInvalidOwner",
      "type": "error"
    },
    {
      "inputs": [
        {
          "internalType": "address",
          "name": "account",
          "type": "address"
        }
      ],
      "name": "OwnableUnauthorizedAccount",
      "type": "error"
    },
    {
      "inputs": [],
      "name": "ReentrancyGuardReentrantCall",
      "type": "error"
    },
    {
      "anonymous": false,
      "inputs": [
        {
          "indexed": true,
          "internalType": "enum ICreditRegistry.ActionType",
          "name": "actionType",
          "type": "uint8"
        },
        {
          "indexed": false,
          "internalType": "uint256",
          "name": "newWeight",
          "type": "uint256"
        }
      ],
      "name": "ActionWeightUpdated",
      "type": "event"
    },
    {
      "anonymous": false,
      "inputs": [
        {
          "indexed": true,
          "internalType": "address",
          "name": "user",
          "type": "address"
        },
        {
          "indexed": true,
          "internalType": "enum ICreditRegistry.ActionType",
          "name": "actionType",
          "type": "uint8"
        },
        {
          "indexed": false,
          "internalType": "uint256",
          "name": "amount",
          "type": "uint256"
        },
        {
          "indexed": false,
          "internalType": "uint256",
          "name": "pointsEarned",
          "type": "uint256"
        },
        {
          "indexed": false,
          "internalType": "uint256",
          "name": "timestamp",
          "type": "uint256"
        }
      ],
      "name": "CreditEventRecorded",
      "type": "event"
    },
    {
      "anonymous": false,
      "inputs": [
        {
          "indexed": false,
          "internalType": "uint64",
          "name": "version",
          "type": "uint64"
        }
      ],
      "name": "Initialized",
      "type": "event"
    },
    {
      "anonymous": false,
      "inputs": [
        {
          "indexed": true,
          "internalType": "address",
          "name": "oldInterceptor",
          "type": "address"
        },
        {
          "indexed": true,
          "internalType": "address",
          "name": "newInterceptor",
          "type": "address"
        }
      ],
      "name": "InterceptorUpdated",
      "type": "event"
    },
    {
      "anonymous": false,
      "inputs": [
        {
          "indexed": true,
          "internalType": "address",
          "name": "previousOwner",
          "type": "address"
        },
        {
          "indexed": true,
          "internalType": "address",
          "name": "newOwner",
          "type": "address"
        }
      ],
      "name": "OwnershipTransferred",
      "type": "event"
    },
    {
      "anonymous": false,
      "inputs": [
        {
          "indexed": true,
          "internalType": "address",
          "name": "user",
          "type": "address"
        },
        {
          "indexed": false,
          "internalType": "bytes32",
          "name": "commitment",
          "type": "bytes32"
        }
      ],
      "name": "ScoreCommitmentUpdated",
      "type": "event"
    },
    {
      "inputs": [],
      "name": "MAX_SCORE",
      "outputs": [
        {
          "internalType": "uint256",
          "name": "",
          "type": "uint256"
        }
      ],
      "stateMutability": "view",
      "type": "function"
    },
    {
      "inputs": [],
      "name": "POINTS_DECIMALS",
      "outputs": [
        {
          "internalType": "uint256",
          "name": "",
          "type": "uint256"
        }
      ],
      "stateMutability": "view",
      "type": "function"
    },
    {
      "inputs": [
        {
          "internalType": "enum ICreditRegistry.ActionType",
          "name": "",
          "type": "uint8"
        }
      ],
      "name": "actionWeights",
      "outputs": [
        {
          "internalType": "uint256",
          "name": "",
          "type": "uint256"
        }
      ],
      "stateMutability": "view",
      "type": "function"
    },
    {
      "inputs": [
        {
          "internalType": "enum ICreditRegistry.ActionType",
          "name": "actionType",
          "type": "uint8"
        }
      ],
      "name": "getActionWeight",
      "outputs": [
        {
          "internalType": "uint256",
          "name": "",
          "type": "uint256"
        }
      ],
      "stateMutability": "view",
      "type": "function"
    },
    {
      "inputs": [
        {
          "internalType": "address",
          "name": "user",
          "type": "address"
        }
      ],
      "name": "getCreditEventCount",
      "outputs": [
        {
          "internalType": "uint256",
          "name": "",
          "type": "uint256"
        }
      ],
      "stateMutability": "view",
      "type": "function"
    },
    {
      "inputs": [],
      "name": "getMyCreditHistory",
      "outputs": [
        {
          "components": [
            {
              "internalType": "address",
              "name": "user",
              "type": "address"
            },
            {
              "internalType": "enum ICreditRegistry.ActionType",
              "name": "actionType",
              "type": "uint8"
            },
            {
              "internalType": "uint256",
              "name": "amount",
              "type": "uint256"
            },
            {
              "internalType": "uint256",
              "name": "timestamp",
              "type": "uint256"
            },
            {
              "internalType": "uint256",
              "name": "pointsEarned",
              "type": "uint256"
            }
          ],
          "internalType": "struct ICreditRegistry.CreditEvent[]",
          "name": "",
          "type": "tuple[]"
        }
      ],
      "stateMutability": "view",
      "type": "function"
    },
    {
      "inputs": [],
      "name": "getMySalt",
      "outputs": [
        {
          "internalType": "bytes32",
          "name": "",
          "type": "bytes32"
        }
      ],
      "stateMutability": "view",
      "type": "function"
    },
    {
      "inputs": [],
      "name": "getMyScore",
      "outputs": [
        {
          "internalType": "uint256",
          "name": "",
          "type": "uint256"
        }
      ],
      "stateMutability": "view",
      "type": "function"
    },
    {
      "inputs": [],
      "name": "getRegistryMerkleRoot",
      "outputs": [
        {
          "internalType": "bytes32",
          "name": "",
          "type": "bytes32"
        }
      ],
      "stateMutability": "view",
      "type": "function"
    },
    {
      "inputs": [
        {
          "internalType": "address",
          "name": "user",
          "type": "address"
        }
      ],
      "name": "getScoreCommitment",
      "outputs": [
        {
          "internalType": "bytes32",
          "name": "",
          "type": "bytes32"
        }
      ],
      "stateMutability": "view",
      "type": "function"
    },
    {
      "inputs": [],
      "name": "getTotalCreditEvents",
      "outputs": [
        {
          "internalType": "uint256",
          "name": "",
          "type": "uint256"
        }
      ],
      "stateMutability": "view",
      "type": "function"
    },
    {
      "inputs": [
        {
          "internalType": "address",
          "name": "_owner",
          "type": "address"
        },
        {
          "internalType": "uint256[]",
          "name": "defaultWeights",
          "type": "uint256[]"
        }
      ],
      "name": "initialize",
      "outputs": [],
      "stateMutability": "nonpayable",
      "type": "function"
    },
    {
      "inputs": [],
      "name": "interceptor",
      "outputs": [
        {
          "internalType": "address",
          "name": "",
          "type": "address"
        }
      ],
      "stateMutability": "view",
      "type": "function"
    },
    {
      "inputs": [],
      "name": "owner",
      "outputs": [
        {
          "internalType": "address",
          "name": "",
          "type": "address"
        }
      ],
      "stateMutability": "view",
      "type": "function"
    },
    {
      "inputs": [
        {
          "internalType": "address",
          "name": "user",
          "type": "address"
        },
        {
          "internalType": "enum ICreditRegistry.ActionType",
          "name": "actionType",
          "type": "uint8"
        },
        {
          "internalType": "uint256",
          "name": "amount",
          "type": "uint256"
        }
      ],
      "name": "registerCreditEvent",
      "outputs": [],
      "stateMutability": "nonpayable",
      "type": "function"
    },
    {
      "inputs": [],
      "name": "registryMerkleRoot",
      "outputs": [
        {
          "internalType": "bytes32",
          "name": "",
          "type": "bytes32"
        }
      ],
      "stateMutability": "view",
      "type": "function"
    },
    {
      "inputs": [],
      "name": "renounceOwnership",
      "outputs": [],
      "stateMutability": "nonpayable",
      "type": "function"
    },
    {
      "inputs": [
        {
          "internalType": "address",
          "name": "",
          "type": "address"
        }
      ],
      "name": "scoreCommitments",
      "outputs": [
        {
          "internalType": "bytes32",
          "name": "",
          "type": "bytes32"
        }
      ],
      "stateMutability": "view",
      "type": "function"
    },
    {
      "inputs": [
        {
          "internalType": "enum ICreditRegistry.ActionType",
          "name": "actionType",
          "type": "uint8"
        },
        {
          "internalType": "uint256",
          "name": "weight",
          "type": "uint256"
        }
      ],
      "name": "setActionWeight",
      "outputs": [],
      "stateMutability": "nonpayable",
      "type": "function"
    },
    {
      "inputs": [
        {
          "internalType": "address",
          "name": "_interceptor",
          "type": "address"
        }
      ],
      "name": "setInterceptor",
      "outputs": [],
      "stateMutability": "nonpayable",
      "type": "function"
    },
    {
      "inputs": [],
      "name": "totalCreditEvents",
      "outputs": [
        {
          "internalType": "uint256",
          "name": "",
          "type": "uint256"
        }
      ],
      "stateMutability": "view",
      "type": "function"
    },
    {
      "inputs": [
        {
          "internalType": "address",
          "name": "newOwner",
          "type": "address"
        }
      ],
      "name": "transferOwnership",
      "outputs": [],
      "stateMutability": "nonpayable",
      "type": "function"
    },
    {
      "inputs": [
        {
          "internalType": "address",
          "name": "user",
          "type": "address"
        },
        {
          "internalType": "uint256",
          "name": "score",
          "type": "uint256"
        },
        {
          "internalType": "bytes32",
          "name": "salt",
          "type": "bytes32"
        }
      ],
      "name": "verifyCommitment",
      "outputs": [
        {
          "internalType": "bool",
          "name": "",
          "type": "bool"
        }
      ],
      "stateMutability": "view",
      "type": "function"
    }
  ],
  "bytecode": "0x6080806040523460aa575f5160206111aa5f395f51905f525460ff8160401c16609b576002600160401b03196001600160401b038216016049575b6040516110fb90816100af8239f35b6001600160401b0319166001600160401b039081175f5160206111aa5f395f51905f525581527fc7f505b2f371ae2175ee4913f4499e1f2633a7b5936321eed1cdaeb6115181d290602090a15f80603a565b63f92ee8a960e01b5f5260045ffd5b5f80fdfe6080806040526004361015610012575f80fd5b5f3560e01c90816310bba86414610ea557508063137fc25f14610e2d5780631da6b4c114610e065780632416c9f214610dcf57806327ff622314610db35780633992a00b14610685578063534cd55c14610be1578063618f8ed3146106a257806366aa0a4a14610c80578063715018a614610c1957806385583d7014610be15780638da5cb5b14610bad578063970a459b14610745578063995c5aa4146106e75780639c894e86146106bf578063a5b9ffd3146106a2578063b8b5158114610685578063e72728661461025e578063f1599f2c14610237578063f198d097146101db578063f2fde38b1461020c578063faa72e07146101db5763fe347c2f14610119575f80fd5b346101d75760403660031901126101d75760043560068110156101d757602435610141611007565b801515806101cc575b15610187576020817f4722933c9d2e70eead537153be890e927ed2944b182c3cb053bc8d052042ebda9261017d85610edb565b55604051908152a2005b60405162461bcd60e51b815260206004820152601e60248201527f43726564697452656769737472793a20696e76616c69642077656967687400006044820152606490fd5b50606481111561014a565b5f80fd5b346101d75760203660031901126101d75760043560068110156101d757610203602091610edb565b54604051908152f35b346101d75760203660031901126101d757610235610228610ec5565b610230611007565b610f96565b005b346101d7575f3660031901126101d757335f526001602052602060405f2054604051908152f35b346101d75760403660031901126101d757610277610ec5565b60243567ffffffffffffffff81116101d757366023820112156101d757806004013567ffffffffffffffff81116101d7573660248260051b840101116101d7575f5160206110a65f395f51905f525460ff8160401c16159367ffffffffffffffff82168015908161067d575b6001149081610673575b15908161066a575b5061065b5767ffffffffffffffff1982166001175f5160206110a65f395f51905f5255610333918561062f575b5061032b61103a565b61023061103a565b61033b61103a565b61034361103a565b60015f5160206110865f395f51905f525560068110610547578015610533575f8052600560205260248201357f05b8ccbb9d4d8fb16ea74ce3c29a41f1b461fbdaff4714a0d9a8eb05499746bc5560018111156105335760015f52600560205260448201357f1471eb6eb2c5e789fc3de43f8ce62938c7d1836ec861730447e2ada8fd81017b5560028111156105335760025f52600560205260648201357f89832631fb3c3307a103ba2c84ab569c64d6182a18893dcd163f0f1c2090733a5560038111156105335760035f52600560205260848201357fa9bc9a3a348c357ba16b37005d7e6b3236198c0e939f4af8c5f19b8deeb8ebc05560048111156105335760045f526005602081905260a48301357f3eec716f11ba9e820c81ca75eb978ffb45831ef8b7a53e5e422c26008e1ca6d55510156105335760055f81905260205260c401357f458b30c2d72bfd2c6317304a4594ecbafe5f729d3111b65fdc3a33bd48e5432d555b60405160208101904682523060601b6040820152603481526104d0605482610f5a565b5190206004556104dc57005b68ff0000000000000000195f5160206110a65f395f51905f5254165f5160206110a65f395f51905f52557fc7f505b2f371ae2175ee4913f4499e1f2633a7b5936321eed1cdaeb6115181d2602060405160018152a1005b634e487b7160e01b5f52603260045260245ffd5b505060056020819052600a7f05b8ccbb9d4d8fb16ea74ce3c29a41f1b461fbdaff4714a0d9a8eb05499746bc5560197f1471eb6eb2c5e789fc3de43f8ce62938c7d1836ec861730447e2ada8fd81017b5560327f89832631fb3c3307a103ba2c84ab569c64d6182a18893dcd163f0f1c2090733a5560147fa9bc9a3a348c357ba16b37005d7e6b3236198c0e939f4af8c5f19b8deeb8ebc0557f3eec716f11ba9e820c81ca75eb978ffb45831ef8b7a53e5e422c26008e1ca6d58190555f52601e7f458b30c2d72bfd2c6317304a4594ecbafe5f729d3111b65fdc3a33bd48e5432d556104ad565b68ffffffffffffffffff191668010000000000000001175f5160206110a65f395f51905f525585610322565b63f92ee8a960e01b5f5260045ffd5b905015866102f5565b303b1591506102ed565b8691506102e3565b346101d7575f3660031901126101d7576020600654604051908152f35b346101d7575f3660031901126101d7576020600454604051908152f35b346101d7575f3660031901126101d7576007546040516001600160a01b039091168152602090f35b346101d75760603660031901126101d7576020610702610ec5565b604051828101906024358252604435604082015260408152610725606082610f5a565b5190209060018060a01b03165f526002825260405f205414604051908152f35b346101d75760603660031901126101d75761075e610ec5565b6024359060068210156101d757600754604435906001600160a01b03163303610b565760025f5160206110865f395f51905f525414610b475760025f5160206110865f395f51905f52556001600160a01b038216916107be831515610ef2565b8115610b02576107cd84610edb565b54670de0b6b3a76400008304908115610af9575b6103e88211610aef575b818102918183041490151715610abe5760649004918215610ae6575b6040519261081484610f3e565b848452602084016108258782610f7c565b6040850193838552606086019542875260808101848152885f525f60205260405f2080549068010000000000000000821015610ad25760018201808255821015610533575f5260205f209060021b019160018060a01b039051166bffffffffffffffffffffffff60a01b8354161782558351906006821015610a545760039183549060ff60a01b9060a01b169060ff60a01b1916178355875160018401558851600284015551910155865f52600160205260405f2054838101809111610abe576103e88111610ab5575b875f52600160205260405f2055865f52600360205260405f205415610a68575b865f526001602052867f0833513eb88af93989d5b93ddfef46235d12f003596d12ea52f4bf1e3250117e602060405f2054835f526003825260405f20546040519083820192835260408201526040815261096a606082610f5a565b519020835f52600282528060405f2055604051908152a260045491516006811015610a54577f254d0406eb348d06821570dc7ba08a61e727ecc2bc4de124830cdf9ec5db9f1f9660609651905190600854926109c584610f88565b6008556040805160208101978852958a1b6bffffffffffffffffffffffff19169086015260f81b6001600160f81b0319166054850152605584015260758301526095808301919091528152610a1b60b582610f5a565b519020600455610a2c600654610f88565b6006556040519182526020820152426040820152a360015f5160206110865f395f51905f5255005b634e487b7160e01b5f52602160045260245ffd5b60405160208101906bffffffffffffffffffffffff198360601b16825242603482015244605482015260548152610aa0607482610f5a565b519020875f52600360205260405f205561090f565b506103e86108ef565b634e487b7160e01b5f52601160045260245ffd5b634e487b7160e01b5f52604160045260245ffd5b60019250610807565b6103e891506107eb565b600191506107e1565b60405162461bcd60e51b815260206004820152601b60248201527f43726564697452656769737472793a207a65726f20616d6f756e7400000000006044820152606490fd5b633ee5aeb560e01b5f5260045ffd5b60405162461bcd60e51b815260206004820152602960248201527f43726564697452656769737472793a2063616c6c6572206973206e6f7420696e6044820152683a32b931b2b83a37b960b91b6064820152608490fd5b346101d7575f3660031901126101d7575f5160206110665f395f51905f52546040516001600160a01b039091168152602090f35b346101d75760203660031901126101d7576001600160a01b03610c02610ec5565b165f526002602052602060405f2054604051908152f35b346101d7575f3660031901126101d757610c31611007565b5f5160206110665f395f51905f5280546001600160a01b031981169091555f906001600160a01b03167f8be0079c531659141344cd1fd0a4f28419497f9722a3daafe3b4186f6b6457e08280a3005b346101d7575f3660031901126101d757335f525f60205260405f20805467ffffffffffffffff8111610ad25760405190610cc060208260051b0183610f5a565b8082526020820180935f5260205f205f915b838310610d5857604080516020808252875190820181905288928201905f5b818110610cfe5783830384f35b845180516001600160a01b03168452602081015192939192906006821015610a545782608060a092602094856001970152604081015160408401526060810151606084015201516080820152019501910193919093610cf1565b60046020600192604051610d6b81610f3e565b610d8860ff8754878060a01b038116845260a01c16848301610f7c565b8486015460408201526002860154606082015260038601546080820152815201920192019190610cd2565b346101d7575f3660031901126101d75760206040516103e88152f35b346101d75760203660031901126101d7576001600160a01b03610df0610ec5565b165f525f602052602060405f2054604051908152f35b346101d7575f3660031901126101d757335f526003602052602060405f2054604051908152f35b346101d75760203660031901126101d757610e46610ec5565b610e4e611007565b6001600160a01b0316610e62811515610ef2565b600780546001600160a01b0319811683179091556001600160a01b03167fc7bca3ce0be760cc772d04070246a4b5f71e7f74ceabe5d3f4f47835b34178d05f80a3005b346101d7575f3660031901126101d75780670de0b6b3a764000060209252f35b600435906001600160a01b03821682036101d757565b6006811015610a54575f52600560205260405f2090565b15610ef957565b60405162461bcd60e51b815260206004820152601c60248201527f43726564697452656769737472793a207a65726f2061646472657373000000006044820152606490fd5b60a0810190811067ffffffffffffffff821117610ad257604052565b90601f8019910116810190811067ffffffffffffffff821117610ad257604052565b6006821015610a545752565b5f198114610abe5760010190565b6001600160a01b03168015610ff4575f5160206110665f395f51905f5280546001600160a01b0319811683179091556001600160a01b03167f8be0079c531659141344cd1fd0a4f28419497f9722a3daafe3b4186f6b6457e05f80a3565b631e4fbdf760e01b5f525f60045260245ffd5b5f5160206110665f395f51905f52546001600160a01b0316330361102757565b63118cdaa760e01b5f523360045260245ffd5b60ff5f5160206110a65f395f51905f525460401c161561105657565b631afcd79f60e31b5f5260045ffdfe9016d09d72d40fdae2fd8ceac6b6234c7706214fd39c1cd1e609a0528c1993009b779b17422d0df92223018b32b4d1fa46e071723d6817e2486d003becc55f00f0c57e16840df040f15088dc2f81fe391c3923bec73e23a9662efc9c229c6a00a26469706673582212207367afbef2518dba5c2bd332bd05f823fefae92d80f9fe18dccd4db929d6784364736f6c634300081c0033f0c57e16840df040f15088dc2f81fe391c3923bec73e23a9662efc9c229c6a00",
  "linkReferences": {},
  "deployedLinkReferences": {},
  "immutableReferences": {},
  "inputSourceName": "project/contracts/CreditRegistry.sol",
  "buildInfoId": "solc-0_8_28-fd399f0093ab55e226ade4a1f5d8fb34144b30bb"
}