{
  "_format": "hh3-artifact-1",
  "contractName": "CrossChainBridge",
  "sourceName": "contracts/CrossChainBridge.sol",
  "abi": [
    {
      "inputs": [],
      "stateMutability": "nonpayable",
      "type": "constructor"
    },
    {
      "inputs": [],
      "name": "InvalidInitialization",
      "type": "error"
    },
    {
      "inputs": [],
      "name": "NotInitializing",
      "type": "error"
    },
    {
      "inputs": [
        {
          "internalType": "address",
          "name": "owner",
          "type": "address"
        }
      ],
      "name": "OwnableInvalidOwner",
      "type": "error"
    },
    {
      "inputs": [
        {
          "internalType": "address",
          "name": "account",
          "type": "address"
        }
      ],
      "name": "OwnableUnauthorizedAccount",
      "type": "error"
    },
    {
      "inputs": [],
      "name": "ReentrancyGuardReentrantCall",
      "type": "error"
    },
    {
      "anonymous": false,
      "inputs": [
        {
          "indexed": true,
          "internalType": "uint256",
          "name": "fromChainId",
          "type": "uint256"
        },
        {
          "indexed": true,
          "internalType": "uint256",
          "name": "toChainId",
          "type": "uint256"
        },
        {
          "indexed": false,
          "internalType": "uint256",
          "name": "weightBps",
          "type": "uint256"
        }
      ],
      "name": "BridgeWeightUpdated",
      "type": "event"
    },
    {
      "anonymous": false,
      "inputs": [
        {
          "indexed": false,
          "internalType": "uint64",
          "name": "version",
          "type": "uint64"
        }
      ],
      "name": "Initialized",
      "type": "event"
    },
    {
      "anonymous": false,
      "inputs": [
        {
          "indexed": true,
          "internalType": "address",
          "name": "previousOwner",
          "type": "address"
        },
        {
          "indexed": true,
          "internalType": "address",
          "name": "newOwner",
          "type": "address"
        }
      ],
      "name": "OwnershipTransferred",
      "type": "event"
    },
    {
      "anonymous": false,
      "inputs": [
        {
          "indexed": true,
          "internalType": "uint256",
          "name": "fromChainId",
          "type": "uint256"
        },
        {
          "indexed": true,
          "internalType": "address",
          "name": "user",
          "type": "address"
        },
        {
          "indexed": false,
          "internalType": "uint256",
          "name": "scoreThreshold",
          "type": "uint256"
        },
        {
          "indexed": false,
          "internalType": "bytes32",
          "name": "exportHash",
          "type": "bytes32"
        }
      ],
      "name": "ScoreExported",
      "type": "event"
    },
    {
      "anonymous": false,
      "inputs": [
        {
          "indexed": true,
          "internalType": "uint256",
          "name": "fromChainId",
          "type": "uint256"
        },
        {
          "indexed": true,
          "internalType": "uint256",
          "name": "toChainId",
          "type": "uint256"
        },
        {
          "indexed": true,
          "internalType": "address",
          "name": "user",
          "type": "address"
        },
        {
          "indexed": false,
          "internalType": "uint256",
          "name": "adjustedScore",
          "type": "uint256"
        }
      ],
      "name": "ScoreImported",
      "type": "event"
    },
    {
      "inputs": [],
      "name": "BPS_DENOMINATOR",
      "outputs": [
        {
          "internalType": "uint256",
          "name": "",
          "type": "uint256"
        }
      ],
      "stateMutability": "view",
      "type": "function"
    },
    {
      "inputs": [],
      "name": "DEFAULT_BRIDGE_WEIGHT",
      "outputs": [
        {
          "internalType": "uint256",
          "name": "",
          "type": "uint256"
        }
      ],
      "stateMutability": "view",
      "type": "function"
    },
    {
      "inputs": [
        {
          "internalType": "uint256",
          "name": "",
          "type": "uint256"
        },
        {
          "internalType": "uint256",
          "name": "",
          "type": "uint256"
        }
      ],
      "name": "bridgeWeights",
      "outputs": [
        {
          "internalType": "uint256",
          "name": "",
          "type": "uint256"
        }
      ],
      "stateMutability": "view",
      "type": "function"
    },
    {
      "inputs": [
        {
          "internalType": "uint256",
          "name": "fromChainId",
          "type": "uint256"
        }
      ],
      "name": "exportScore",
      "outputs": [
        {
          "components": [
            {
              "internalType": "uint256",
              "name": "fromChainId",
              "type": "uint256"
            },
            {
              "internalType": "address",
              "name": "user",
              "type": "address"
            },
            {
              "internalType": "uint256",
              "name": "scoreThreshold",
              "type": "uint256"
            },
            {
              "internalType": "bytes",
              "name": "proof",
              "type": "bytes"
            },
            {
              "internalType": "uint256",
              "name": "timestamp",
              "type": "uint256"
            },
            {
              "internalType": "bytes32",
              "name": "exportHash",
              "type": "bytes32"
            }
          ],
          "internalType": "struct ICrossChainBridge.ScoreExport",
          "name": "scoreExport",
          "type": "tuple"
        }
      ],
      "stateMutability": "nonpayable",
      "type": "function"
    },
    {
      "inputs": [],
      "name": "factory",
      "outputs": [
        {
          "internalType": "contract ICreditChainFactory",
          "name": "",
          "type": "address"
        }
      ],
      "stateMutability": "view",
      "type": "function"
    },
    {
      "inputs": [
        {
          "internalType": "uint256",
          "name": "fromChainId",
          "type": "uint256"
        },
        {
          "internalType": "uint256",
          "name": "toChainId",
          "type": "uint256"
        }
      ],
      "name": "getBridgeWeight",
      "outputs": [
        {
          "internalType": "uint256",
          "name": "weightBps",
          "type": "uint256"
        }
      ],
      "stateMutability": "view",
      "type": "function"
    },
    {
      "inputs": [
        {
          "internalType": "address",
          "name": "user",
          "type": "address"
        }
      ],
      "name": "getUserExportCount",
      "outputs": [
        {
          "internalType": "uint256",
          "name": "",
          "type": "uint256"
        }
      ],
      "stateMutability": "view",
      "type": "function"
    },
    {
      "inputs": [
        {
          "internalType": "address",
          "name": "user",
          "type": "address"
        }
      ],
      "name": "getUserExports",
      "outputs": [
        {
          "components": [
            {
              "internalType": "uint256",
              "name": "fromChainId",
              "type": "uint256"
            },
            {
              "internalType": "address",
              "name": "user",
              "type": "address"
            },
            {
              "internalType": "uint256",
              "name": "scoreThreshold",
              "type": "uint256"
            },
            {
              "internalType": "bytes",
              "name": "proof",
              "type": "bytes"
            },
            {
              "internalType": "uint256",
              "name": "timestamp",
              "type": "uint256"
            },
            {
              "internalType": "bytes32",
              "name": "exportHash",
              "type": "bytes32"
            }
          ],
          "internalType": "struct ICrossChainBridge.ScoreExport[]",
          "name": "",
          "type": "tuple[]"
        }
      ],
      "stateMutability": "view",
      "type": "function"
    },
    {
      "inputs": [
        {
          "internalType": "uint256",
          "name": "toChainId",
          "type": "uint256"
        },
        {
          "components": [
            {
              "internalType": "uint256",
              "name": "fromChainId",
              "type": "uint256"
            },
            {
              "internalType": "address",
              "name": "user",
              "type": "address"
            },
            {
              "internalType": "uint256",
              "name": "scoreThreshold",
              "type": "uint256"
            },
            {
              "internalType": "bytes",
              "name": "proof",
              "type": "bytes"
            },
            {
              "internalType": "uint256",
              "name": "timestamp",
              "type": "uint256"
            },
            {
              "internalType": "bytes32",
              "name": "exportHash",
              "type": "bytes32"
            }
          ],
          "internalType": "struct ICrossChainBridge.ScoreExport",
          "name": "exportData",
          "type": "tuple"
        }
      ],
      "name": "importScore",
      "outputs": [
        {
          "internalType": "bool",
          "name": "success",
          "type": "bool"
        }
      ],
      "stateMutability": "nonpayable",
      "type": "function"
    },
    {
      "inputs": [
        {
          "internalType": "address",
          "name": "_owner",
          "type": "address"
        },
        {
          "internalType": "address",
          "name": "_factory",
          "type": "address"
        }
      ],
      "name": "initialize",
      "outputs": [],
      "stateMutability": "nonpayable",
      "type": "function"
    },
    {
      "inputs": [
        {
          "internalType": "bytes32",
          "name": "exportHash",
          "type": "bytes32"
        }
      ],
      "name": "isExportProcessed",
      "outputs": [
        {
          "internalType": "bool",
          "name": "",
          "type": "bool"
        }
      ],
      "stateMutability": "view",
      "type": "function"
    },
    {
      "inputs": [],
      "name": "owner",
      "outputs": [
        {
          "internalType": "address",
          "name": "",
          "type": "address"
        }
      ],
      "stateMutability": "view",
      "type": "function"
    },
    {
      "inputs": [
        {
          "internalType": "bytes32",
          "name": "",
          "type": "bytes32"
        }
      ],
      "name": "processedExports",
      "outputs": [
        {
          "internalType": "bool",
          "name": "",
          "type": "bool"
        }
      ],
      "stateMutability": "view",
      "type": "function"
    },
    {
      "inputs": [],
      "name": "renounceOwnership",
      "outputs": [],
      "stateMutability": "nonpayable",
      "type": "function"
    },
    {
      "inputs": [
        {
          "internalType": "uint256",
          "name": "fromChainId",
          "type": "uint256"
        },
        {
          "internalType": "uint256",
          "name": "toChainId",
          "type": "uint256"
        },
        {
          "internalType": "uint256",
          "name": "weightBps",
          "type": "uint256"
        }
      ],
      "name": "setBridgeWeight",
      "outputs": [],
      "stateMutability": "nonpayable",
      "type": "function"
    },
    {
      "inputs": [
        {
          "internalType": "address",
          "name": "newOwner",
          "type": "address"
        }
      ],
      "name": "transferOwnership",
      "outputs": [],
      "stateMutability": "nonpayable",
      "type": "function"
    },
    {
      "inputs": [
        {
          "internalType": "address",
          "name": "",
          "type": "address"
        },
        {
          "internalType": "uint256",
          "name": "",
          "type": "uint256"
        }
      ],
      "name": "userExports",
      "outputs": [
        {
          "internalType": "uint256",
          "name": "fromChainId",
          "type": "uint256"
        },
        {
          "internalType": "address",
          "name": "user",
          "type": "address"
        },
        {
          "internalType": "uint256",
          "name": "scoreThreshold",
          "type": "uint256"
        },
        {
          "internalType": "bytes",
          "name": "proof",
          "type": "bytes"
        },
        {
          "internalType": "uint256",
          "name": "timestamp",
          "type": "uint256"
        },
        {
          "internalType": "bytes32",
          "name": "exportHash",
          "type": "bytes32"
        }
      ],
      "stateMutability": "view",
      "type": "function"
    }
  ],
  "bytecode": "0x6080806040523460aa575f5160206116d95f395f51905f525460ff8160401c16609b576002600160401b03196001600160401b038216016049575b60405161162a90816100af8239f35b6001600160401b0319166001600160401b039081175f5160206116d95f395f51905f525581527fc7f505b2f371ae2175ee4913f4499e1f2633a7b5936321eed1cdaeb6115181d290602090a15f80603a565b63f92ee8a960e01b5f5260045ffd5b5f80fdfe6080806040526004361015610012575f80fd5b5f3560e01c90816303e74c44146110e85750806324407660146110b057806339d7feb014610bf75780633b707a431461092c5780633c97665514610b3a578063485cc9551461095b57806348bff1751461092c57806353a8b0f3146108fd5780636fe0907d14610856578063715018a6146107ef5780637da31367146102e75780638da5cb5b146102b3578063c45a01551461028c578063d3edb9c414610143578063e1a4521814610127578063f2fde38b146100fc5763fb3ff949146100d7575f80fd5b346100f85760206100f06100ea36611118565b906114d8565b604051908152f35b5f80fd5b346100f85760203660031901126100f857610125610118611102565b610120611536565b611467565b005b346100f8575f3660031901126100f85760206040516127108152f35b346100f85760203660031901126100f8576001600160a01b03610164611102565b165f52600360205260405f2080549067ffffffffffffffff8211610278576040519161019660208260051b01846111af565b8083526020830180925f5260205f205f915b83831061021557848660405191829160208301906020845251809152604083019060408160051b85010192915f905b8282106101e657505050500390f35b919360019193955060206102058192603f198a82030186528851611295565b96019201920185949391926101d7565b6006602060019260405161022881611193565b85548152848060a01b0385870154168382015260028601546040820152610251600387016111d1565b606082015260048601546080820152600586015460a08201528152019201920191906101a8565b634e487b7160e01b5f52604160045260245ffd5b346100f8575f3660031901126100f8575f546040516001600160a01b039091168152602090f35b346100f8575f3660031901126100f8575f5160206115955f395f51905f52546040516001600160a01b039091168152602090f35b346100f85760203660031901126100f8576004355f60a060405161030a81611193565b828152826020820152826040820152606080820152826080820152015261032f6114fe565b5f54604051639227d51960e01b8152600481018390526001600160a01b0390911690602081602481855afa9081156106b1575f916107b5575b5015610761575f6024916040519283809263770fcfb360e11b82528660048301525afa9081156106b1575f9161073f575b5060600151604051633c5667cb60e21b81526001600160a01b039091169190602081600481865afa9081156106b1575f9161070d575b5080156106bc5760206024936040519485809263085583d760e41b82523360048301525afa9283156106b1575f9361067d575b5060405160208101908382523360601b60408201528260548201528460748201524260948201526094815261043860b4826111af565b51902091604051936020850152602084526104546040856111af565b6040519261046184611193565b8184526020840133815260408501848152606086019687526080860142815260a0870191848352335f52600360205260405f20805468010000000000000000811015610278576104b69160018201815561112e565b94909461066a5788518555600185019060018060a01b039051166bffffffffffffffffffffffff60a01b82541617905551600284015560038301975197885167ffffffffffffffff81116102785761050e825461115b565b601f8111610625575b506020601f82116001146105bb5790806005959493926105ac9c5f926105b0575b50508160011b915f199060031b1c19161790555b5160048401555191015560405192835260208301527fd3e96411768903de96d73ed6b90a344e7f029808f7e01c7b76afdc3c4f9d02de60403393a360015f5160206115b55f395f51905f5255604051918291602083526020830190611295565b0390f35b015190508c80610538565b601f1982169a835f52815f209b5f5b81811061060d57509b60019284926005989796956105ac9f106105f5575b505050811b01905561054c565b01515f1960f88460031b161c191690558c80806105e8565b838301518e556001909d019c602093840193016105ca565b825f5260205f20601f830160051c81019160208410610660575b601f0160051c01905b8181106106555750610517565b5f8155600101610648565b909150819061063f565b634e487b7160e01b5f525f60045260245ffd5b9092506020813d6020116106a9575b81610699602093836111af565b810103126100f857519183610402565b3d915061068c565b6040513d5f823e3d90fd5b60405162461bcd60e51b815260206004820152602360248201527f43726f7373436861696e4272696467653a206e6f2063726564697420686973746044820152626f727960e81b6064820152608490fd5b90506020813d602011610737575b81610728602093836111af565b810103126100f85751836103cf565b3d915061071b565b61075b91503d805f833e61075381836111af565b810190611306565b82610399565b60405162461bcd60e51b815260206004820152602660248201527f43726f7373436861696e4272696467653a20696e76616c696420736f757263656044820152651031b430b4b760d11b6064820152608490fd5b90506020813d6020116107e7575b816107d0602093836111af565b810103126100f8576107e1906112e5565b83610368565b3d91506107c3565b346100f8575f3660031901126100f857610807611536565b5f5160206115955f395f51905f5280546001600160a01b031981169091555f906001600160a01b03167f8be0079c531659141344cd1fd0a4f28419497f9722a3daafe3b4186f6b6457e08280a3005b346100f85760403660031901126100f85761086f611102565b6001600160a01b03165f9081526003602052604090208054602435908110156100f85761089b9161112e565b50805460018060a01b036001830154169160028101546108ee6108c0600384016111d1565b600560048501549401549260405196879687526020870152604086015260c0606086015260c0850190611271565b91608084015260a08301520390f35b346100f85761090b36611118565b905f52600160205260405f20905f52602052602060405f2054604051908152f35b346100f85760203660031901126100f8576004355f526002602052602060ff60405f2054166040519015158152f35b346100f85760403660031901126100f857610974611102565b6024356001600160a01b038116908190036100f8575f5160206115d55f395f51905f525460ff8160401c16159267ffffffffffffffff821680159081610b32575b6001149081610b28575b159081610b1f575b50610b105767ffffffffffffffff1982166001175f5160206115d55f395f51905f5255610a059184610ae4575b506109fd611569565b610120611569565b610a0d611569565b610a15611569565b60015f5160206115b55f395f51905f52558015610a9f576bffffffffffffffffffffffff60a01b5f5416175f55610a4857005b68ff0000000000000000195f5160206115d55f395f51905f5254165f5160206115d55f395f51905f52557fc7f505b2f371ae2175ee4913f4499e1f2633a7b5936321eed1cdaeb6115181d2602060405160018152a1005b60405162461bcd60e51b815260206004820152601e60248201527f43726f7373436861696e4272696467653a207a65726f20666163746f727900006044820152606490fd5b68ffffffffffffffffff191668010000000000000001175f5160206115d55f395f51905f5255846109f4565b63f92ee8a960e01b5f5260045ffd5b905015856109c7565b303b1591506109bf565b8591506109b5565b346100f85760603660031901126100f857602435600435604435610b5c611536565b6127108111610ba85760207f71574d0e9a25235bf05c59362cfc809ce7f3e2031f42e240f8052d178fb27c9891835f526001825260405f20855f5282528060405f2055604051908152a3005b60405162461bcd60e51b815260206004820152602160248201527f43726f7373436861696e4272696467653a2077656967687420746f6f206869676044820152600d60fb1b6064820152608490fd5b346100f85760403660031901126100f85760243560043567ffffffffffffffff82116100f85781360360c06003198201126100f857610c346114fe565b60248301356001600160a01b038116908190036100f857330361106b5760a4830135805f52600260205260ff60405f20541661101a575f54604051639227d51960e01b8152600481018590526001600160a01b0390911690602081602481855afa9081156106b1575f91610fe0575b5015610f8f578460040135926040519163770fcfb360e11b83528460048401525f83602481845afa9283156106b1575f93610f6e575b505f6024916040519283809263770fcfb360e11b82528a60048301525afa9081156106b1575f91610f54575b5061010083015115610f0357610100015115610eb357606486013590602219018112156100f857850190600482013567ffffffffffffffff81116100f857602483019281360384136100f857836004602093849301010301126100f8576060015160405163085583d760e41b8152336004820152913590602090839060249082906001600160a01b03165afa9182156106b1575f92610e7f575b5003610e3a576044610db184846114d8565b940135848102948186041490151715610e26575f52600260205260405f20600160ff19825416179055612710604051930483527ff37bfabf8a4c3aabf523cf080066d5875e190abfbd25294ab0c076668eba4fb260203394a460015f5160206115b55f395f51905f5255602060405160018152f35b634e487b7160e01b5f52601160045260245ffd5b60405162461bcd60e51b815260206004820152601f60248201527f43726f7373436861696e4272696467653a20696e76616c69642070726f6f66006044820152606490fd5b9091506020813d602011610eab575b81610e9b602093836111af565b810103126100f857519086610d9f565b3d9150610e8e565b60405162461bcd60e51b815260206004820152602260248201527f43726f7373436861696e4272696467653a2064657374206e6f7420656e61626c604482015261195960f21b6064820152608490fd5b60405162461bcd60e51b8152602060048201526024808201527f43726f7373436861696e4272696467653a20736f75726365206e6f7420656e61604482015263189b195960e21b6064820152608490fd5b610f6891503d805f833e61075381836111af565b87610d05565b6024919350610f875f913d8084833e61075381836111af565b939150610cd9565b60405162461bcd60e51b8152602060048201526024808201527f43726f7373436861696e4272696467653a20696e76616c6964206465737420636044820152633430b4b760e11b6064820152608490fd5b90506020813d602011611012575b81610ffb602093836111af565b810103126100f85761100c906112e5565b86610ca3565b3d9150610fee565b60405162461bcd60e51b815260206004820152602360248201527f43726f7373436861696e4272696467653a20616c72656164792070726f6365736044820152621cd95960ea1b6064820152608490fd5b60405162461bcd60e51b815260206004820152601b60248201527f43726f7373436861696e4272696467653a206e6f74206f776e657200000000006044820152606490fd5b346100f85760203660031901126100f8576001600160a01b036110d1611102565b165f526003602052602060405f2054604051908152f35b346100f8575f3660031901126100f85780611b5860209252f35b600435906001600160a01b03821682036100f857565b60409060031901126100f8576004359060243590565b8054821015611147575f52600660205f20910201905f90565b634e487b7160e01b5f52603260045260245ffd5b90600182811c92168015611189575b602083101461117557565b634e487b7160e01b5f52602260045260245ffd5b91607f169161116a565b60c0810190811067ffffffffffffffff82111761027857604052565b90601f8019910116810190811067ffffffffffffffff82111761027857604052565b9060405191825f8254926111e48461115b565b808452936001811690811561124f575060011461120b575b50611209925003836111af565b565b90505f9291925260205f20905f915b818310611233575050906020611209928201015f6111fc565b602091935080600191548385890101520191019091849261121a565b90506020925061120994915060ff191682840152151560051b8201015f6111fc565b805180835260209291819084018484015e5f828201840152601f01601f1916010190565b908151815260018060a01b0360208301511660208201526040820151604082015260a0806112d2606085015160c0606086015260c0850190611271565b9360808101516080850152015191015290565b519081151582036100f857565b51906001600160a01b03821682036100f857565b6020818303126100f85780519067ffffffffffffffff82116100f8570190610180828203126100f85760405191610180830183811067ffffffffffffffff821117610278576040528051835261135e602082016112f2565b6020840152604081015167ffffffffffffffff81116100f85781019082601f830112156100f85781519267ffffffffffffffff841161027857604051906113af601f8601601f1916602001836111af565b848252602085850101116100f8575f60208561145e968261016097018386015e8301015260408501526113e4606082016112f2565b60608501526113f5608082016112f2565b608085015261140660a082016112f2565b60a085015261141760c082016112f2565b60c085015261142860e082016112f2565b60e085015261143a61010082016112e5565b610100850152610120810151610120850152610140810151610140850152016112e5565b61016082015290565b6001600160a01b031680156114c5575f5160206115955f395f51905f5280546001600160a01b0319811683179091556001600160a01b03167f8be0079c531659141344cd1fd0a4f28419497f9722a3daafe3b4186f6b6457e05f80a3565b631e4fbdf760e01b5f525f60045260245ffd5b5f52600160205260405f20905f5260205260405f20549081156114f757565b611b589150565b60025f5160206115b55f395f51905f5254146115275760025f5160206115b55f395f51905f5255565b633ee5aeb560e01b5f5260045ffd5b5f5160206115955f395f51905f52546001600160a01b0316330361155657565b63118cdaa760e01b5f523360045260245ffd5b60ff5f5160206115d55f395f51905f525460401c161561158557565b631afcd79f60e31b5f5260045ffdfe9016d09d72d40fdae2fd8ceac6b6234c7706214fd39c1cd1e609a0528c1993009b779b17422d0df92223018b32b4d1fa46e071723d6817e2486d003becc55f00f0c57e16840df040f15088dc2f81fe391c3923bec73e23a9662efc9c229c6a00a2646970667358221220e1735fc6ac0283d7b624a050fa3011bc35d20b908a6f8c5ea3e6077a7284fb7c64736f6c634300081c0033f0c57e16840df040f15088dc2f81fe391c3923bec73e23a9662efc9c229c6a00",
  "linkReferences": {},
  "deployedLinkReferences": {},
  "immutableReferences": {},
  "inputSourceName": "project/contracts/CrossChainBridge.sol",
  "buildInfoId": "solc-0_8_28-49028def04e8b16930d76fb1720be58acf090c58"
}