{
  "_format": "hh3-artifact-1",
  "contractName": "CreditChainFactory",
  "sourceName": "contracts/CreditChainFactory.sol",
  "abi": [
    {
      "inputs": [
        {
          "internalType": "address",
          "name": "_registryImpl",
          "type": "address"
        },
        {
          "internalType": "address",
          "name": "_interceptorImpl",
          "type": "address"
        },
        {
          "internalType": "address",
          "name": "_vaultImpl",
          "type": "address"
        },
        {
          "internalType": "address",
          "name": "_verifierImpl",
          "type": "address"
        },
        {
          "internalType": "address",
          "name": "_nftImpl",
          "type": "address"
        },
        {
          "internalType": "address",
          "name": "_defaultLendingToken",
          "type": "address"
        }
      ],
      "stateMutability": "nonpayable",
      "type": "constructor"
    },
    {
      "inputs": [],
      "name": "FailedDeployment",
      "type": "error"
    },
    {
      "inputs": [
        {
          "internalType": "uint256",
          "name": "balance",
          "type": "uint256"
        },
        {
          "internalType": "uint256",
          "name": "needed",
          "type": "uint256"
        }
      ],
      "name": "InsufficientBalance",
      "type": "error"
    },
    {
      "inputs": [
        {
          "internalType": "address",
          "name": "owner",
          "type": "address"
        }
      ],
      "name": "OwnableInvalidOwner",
      "type": "error"
    },
    {
      "inputs": [
        {
          "internalType": "address",
          "name": "account",
          "type": "address"
        }
      ],
      "name": "OwnableUnauthorizedAccount",
      "type": "error"
    },
    {
      "anonymous": false,
      "inputs": [
        {
          "indexed": true,
          "internalType": "uint256",
          "name": "chainId",
          "type": "uint256"
        },
        {
          "indexed": true,
          "internalType": "address",
          "name": "admin",
          "type": "address"
        }
      ],
      "name": "AppChainDeactivated",
      "type": "event"
    },
    {
      "anonymous": false,
      "inputs": [
        {
          "indexed": true,
          "internalType": "uint256",
          "name": "chainId",
          "type": "uint256"
        },
        {
          "indexed": true,
          "internalType": "address",
          "name": "admin",
          "type": "address"
        },
        {
          "indexed": false,
          "internalType": "string",
          "name": "name",
          "type": "string"
        },
        {
          "indexed": false,
          "internalType": "address",
          "name": "registry",
          "type": "address"
        },
        {
          "indexed": false,
          "internalType": "address",
          "name": "interceptor",
          "type": "address"
        },
        {
          "indexed": false,
          "internalType": "address",
          "name": "vault",
          "type": "address"
        },
        {
          "indexed": false,
          "internalType": "address",
          "name": "verifier",
          "type": "address"
        },
        {
          "indexed": false,
          "internalType": "address",
          "name": "nft",
          "type": "address"
        }
      ],
      "name": "AppChainDeployed",
      "type": "event"
    },
    {
      "anonymous": false,
      "inputs": [
        {
          "indexed": true,
          "internalType": "uint256",
          "name": "chainId",
          "type": "uint256"
        },
        {
          "indexed": true,
          "internalType": "address",
          "name": "admin",
          "type": "address"
        }
      ],
      "name": "AppChainReactivated",
      "type": "event"
    },
    {
      "anonymous": false,
      "inputs": [
        {
          "indexed": false,
          "internalType": "string",
          "name": "contractName",
          "type": "string"
        },
        {
          "indexed": true,
          "internalType": "address",
          "name": "oldImpl",
          "type": "address"
        },
        {
          "indexed": true,
          "internalType": "address",
          "name": "newImpl",
          "type": "address"
        }
      ],
      "name": "ImplementationUpgraded",
      "type": "event"
    },
    {
      "anonymous": false,
      "inputs": [
        {
          "indexed": true,
          "internalType": "address",
          "name": "previousOwner",
          "type": "address"
        },
        {
          "indexed": true,
          "internalType": "address",
          "name": "newOwner",
          "type": "address"
        }
      ],
      "name": "OwnershipTransferred",
      "type": "event"
    },
    {
      "inputs": [
        {
          "internalType": "address",
          "name": "",
          "type": "address"
        },
        {
          "internalType": "uint256",
          "name": "",
          "type": "uint256"
        }
      ],
      "name": "adminAppChains",
      "outputs": [
        {
          "internalType": "uint256",
          "name": "",
          "type": "uint256"
        }
      ],
      "stateMutability": "view",
      "type": "function"
    },
    {
      "inputs": [
        {
          "internalType": "uint256",
          "name": "",
          "type": "uint256"
        }
      ],
      "name": "appChains",
      "outputs": [
        {
          "internalType": "uint256",
          "name": "id",
          "type": "uint256"
        },
        {
          "internalType": "address",
          "name": "admin",
          "type": "address"
        },
        {
          "internalType": "string",
          "name": "name",
          "type": "string"
        },
        {
          "internalType": "address",
          "name": "registry",
          "type": "address"
        },
        {
          "internalType": "address",
          "name": "interceptor",
          "type": "address"
        },
        {
          "internalType": "address",
          "name": "vault",
          "type": "address"
        },
        {
          "internalType": "address",
          "name": "verifier",
          "type": "address"
        },
        {
          "internalType": "address",
          "name": "nft",
          "type": "address"
        },
        {
          "internalType": "bool",
          "name": "allowCrossChainScores",
          "type": "bool"
        },
        {
          "internalType": "uint256",
          "name": "minScoreForLoan",
          "type": "uint256"
        },
        {
          "internalType": "uint256",
          "name": "createdAt",
          "type": "uint256"
        },
        {
          "internalType": "bool",
          "name": "active",
          "type": "bool"
        }
      ],
      "stateMutability": "view",
      "type": "function"
    },
    {
      "inputs": [
        {
          "internalType": "uint256",
          "name": "chainId",
          "type": "uint256"
        }
      ],
      "name": "deactivateAppChain",
      "outputs": [],
      "stateMutability": "nonpayable",
      "type": "function"
    },
    {
      "inputs": [],
      "name": "defaultLendingToken",
      "outputs": [
        {
          "internalType": "address",
          "name": "",
          "type": "address"
        }
      ],
      "stateMutability": "view",
      "type": "function"
    },
    {
      "inputs": [
        {
          "internalType": "string",
          "name": "name",
          "type": "string"
        },
        {
          "components": [
            {
              "internalType": "uint256[]",
              "name": "actionWeights",
              "type": "uint256[]"
            },
            {
              "components": [
                {
                  "internalType": "uint256",
                  "name": "scoreThreshold",
                  "type": "uint256"
                },
                {
                  "internalType": "uint256",
                  "name": "maxAmount",
                  "type": "uint256"
                },
                {
                  "internalType": "uint256",
                  "name": "interestBps",
                  "type": "uint256"
                },
                {
                  "internalType": "uint256",
                  "name": "durationDays",
                  "type": "uint256"
                },
                {
                  "internalType": "uint256",
                  "name": "collateralBps",
                  "type": "uint256"
                }
              ],
              "internalType": "struct ICreditVault.LoanTier[]",
              "name": "loanTiers",
              "type": "tuple[]"
            },
            {
              "internalType": "bool",
              "name": "allowCrossChainScores",
              "type": "bool"
            },
            {
              "internalType": "uint256",
              "name": "minScoreForLoan",
              "type": "uint256"
            },
            {
              "internalType": "address[]",
              "name": "whitelistedTokens",
              "type": "address[]"
            }
          ],
          "internalType": "struct ICreditChainFactory.AppChainConfig",
          "name": "config",
          "type": "tuple"
        }
      ],
      "name": "deployAppChain",
      "outputs": [
        {
          "internalType": "uint256",
          "name": "chainId",
          "type": "uint256"
        }
      ],
      "stateMutability": "nonpayable",
      "type": "function"
    },
    {
      "inputs": [
        {
          "internalType": "string",
          "name": "name",
          "type": "string"
        }
      ],
      "name": "deployAppChainSimple",
      "outputs": [
        {
          "internalType": "uint256",
          "name": "chainId",
          "type": "uint256"
        }
      ],
      "stateMutability": "nonpayable",
      "type": "function"
    },
    {
      "inputs": [
        {
          "internalType": "uint256",
          "name": "chainId",
          "type": "uint256"
        }
      ],
      "name": "getAppChain",
      "outputs": [
        {
          "components": [
            {
              "internalType": "uint256",
              "name": "id",
              "type": "uint256"
            },
            {
              "internalType": "address",
              "name": "admin",
              "type": "address"
            },
            {
              "internalType": "string",
              "name": "name",
              "type": "string"
            },
            {
              "internalType": "address",
              "name": "registry",
              "type": "address"
            },
            {
              "internalType": "address",
              "name": "interceptor",
              "type": "address"
            },
            {
              "internalType": "address",
              "name": "vault",
              "type": "address"
            },
            {
              "internalType": "address",
              "name": "verifier",
              "type": "address"
            },
            {
              "internalType": "address",
              "name": "nft",
              "type": "address"
            },
            {
              "internalType": "bool",
              "name": "allowCrossChainScores",
              "type": "bool"
            },
            {
              "internalType": "uint256",
              "name": "minScoreForLoan",
              "type": "uint256"
            },
            {
              "internalType": "uint256",
              "name": "createdAt",
              "type": "uint256"
            },
            {
              "internalType": "bool",
              "name": "active",
              "type": "bool"
            }
          ],
          "internalType": "struct ICreditChainFactory.AppChain",
          "name": "",
          "type": "tuple"
        }
      ],
      "stateMutability": "view",
      "type": "function"
    },
    {
      "inputs": [],
      "name": "getAppChainCount",
      "outputs": [
        {
          "internalType": "uint256",
          "name": "",
          "type": "uint256"
        }
      ],
      "stateMutability": "view",
      "type": "function"
    },
    {
      "inputs": [
        {
          "internalType": "address",
          "name": "admin",
          "type": "address"
        }
      ],
      "name": "getAppChainsByAdmin",
      "outputs": [
        {
          "internalType": "uint256[]",
          "name": "",
          "type": "uint256[]"
        }
      ],
      "stateMutability": "view",
      "type": "function"
    },
    {
      "inputs": [],
      "name": "getImplementations",
      "outputs": [
        {
          "internalType": "address",
          "name": "_registryImpl",
          "type": "address"
        },
        {
          "internalType": "address",
          "name": "_interceptorImpl",
          "type": "address"
        },
        {
          "internalType": "address",
          "name": "_vaultImpl",
          "type": "address"
        },
        {
          "internalType": "address",
          "name": "_verifierImpl",
          "type": "address"
        },
        {
          "internalType": "address",
          "name": "_nftImpl",
          "type": "address"
        }
      ],
      "stateMutability": "view",
      "type": "function"
    },
    {
      "inputs": [],
      "name": "interceptorImpl",
      "outputs": [
        {
          "internalType": "address",
          "name": "",
          "type": "address"
        }
      ],
      "stateMutability": "view",
      "type": "function"
    },
    {
      "inputs": [
        {
          "internalType": "uint256",
          "name": "chainId",
          "type": "uint256"
        }
      ],
      "name": "isActiveAppChain",
      "outputs": [
        {
          "internalType": "bool",
          "name": "",
          "type": "bool"
        }
      ],
      "stateMutability": "view",
      "type": "function"
    },
    {
      "inputs": [],
      "name": "nftImpl",
      "outputs": [
        {
          "internalType": "address",
          "name": "",
          "type": "address"
        }
      ],
      "stateMutability": "view",
      "type": "function"
    },
    {
      "inputs": [],
      "name": "owner",
      "outputs": [
        {
          "internalType": "address",
          "name": "",
          "type": "address"
        }
      ],
      "stateMutability": "view",
      "type": "function"
    },
    {
      "inputs": [
        {
          "internalType": "uint256",
          "name": "chainId",
          "type": "uint256"
        }
      ],
      "name": "reactivateAppChain",
      "outputs": [],
      "stateMutability": "nonpayable",
      "type": "function"
    },
    {
      "inputs": [],
      "name": "registryImpl",
      "outputs": [
        {
          "internalType": "address",
          "name": "",
          "type": "address"
        }
      ],
      "stateMutability": "view",
      "type": "function"
    },
    {
      "inputs": [],
      "name": "renounceOwnership",
      "outputs": [],
      "stateMutability": "nonpayable",
      "type": "function"
    },
    {
      "inputs": [
        {
          "internalType": "address",
          "name": "token",
          "type": "address"
        }
      ],
      "name": "setDefaultLendingToken",
      "outputs": [],
      "stateMutability": "nonpayable",
      "type": "function"
    },
    {
      "inputs": [],
      "name": "totalChains",
      "outputs": [
        {
          "internalType": "uint256",
          "name": "",
          "type": "uint256"
        }
      ],
      "stateMutability": "view",
      "type": "function"
    },
    {
      "inputs": [
        {
          "internalType": "address",
          "name": "newOwner",
          "type": "address"
        }
      ],
      "name": "transferOwnership",
      "outputs": [],
      "stateMutability": "nonpayable",
      "type": "function"
    },
    {
      "inputs": [
        {
          "internalType": "string",
          "name": "contractName",
          "type": "string"
        },
        {
          "internalType": "address",
          "name": "newImpl",
          "type": "address"
        }
      ],
      "name": "upgradeImplementation",
      "outputs": [],
      "stateMutability": "nonpayable",
      "type": "function"
    },
    {
      "inputs": [],
      "name": "vaultImpl",
      "outputs": [
        {
          "internalType": "address",
          "name": "",
          "type": "address"
        }
      ],
      "stateMutability": "view",
      "type": "function"
    },
    {
      "inputs": [],
      "name": "verifierImpl",
      "outputs": [
        {
          "internalType": "address",
          "name": "",
          "type": "address"
        }
      ],
      "stateMutability": "view",
      "type": "function"
    }
  ],
  "bytecode": "0x60803461030557601f61206838819003918201601f19168301916001600160401b038311848410176103095780849260c094604052833981010312610305576100478161031d565b6100536020830161031d565b916100606040820161031d565b61006c6060830161031d565b9061008560a061007e6080860161031d565b940161031d565b9433156102f2575f8054336001600160a01b0319821681178355604051979290916001600160a01b0316907f8be0079c531659141344cd1fd0a4f28419497f9722a3daafe3b4186f6b6457e09080a36001600160a01b03169485156102b057506001600160a01b031690811561026b576001600160a01b0316918215610226576001600160a01b03169283156101e1576001600160a01b031693841561019c5760018060a01b0319600454161760045560018060a01b0319600554161760055560018060a01b0319600654161760065560018060a01b0319600754161760075560018060a01b0319600854161760085560018060a01b031660018060a01b03196009541617600955604051611d3690816103328239f35b60405162461bcd60e51b815260206004820152601660248201527f466163746f72793a207a65726f206e667420696d706c000000000000000000006044820152606490fd5b60405162461bcd60e51b815260206004820152601b60248201527f466163746f72793a207a65726f20766572696669657220696d706c00000000006044820152606490fd5b60405162461bcd60e51b815260206004820152601860248201527f466163746f72793a207a65726f207661756c7420696d706c00000000000000006044820152606490fd5b60405162461bcd60e51b815260206004820152601e60248201527f466163746f72793a207a65726f20696e746572636570746f7220696d706c00006044820152606490fd5b62461bcd60e51b815260206004820152601b60248201527f466163746f72793a207a65726f20726567697374727920696d706c00000000006044820152606490fd5b631e4fbdf760e01b5f525f60045260245ffd5b5f80fd5b634e487b7160e01b5f52604160045260245ffd5b51906001600160a01b03821682036103055756fe6080806040526004361015610012575f80fd5b5f905f3560e01c90816325c8d0c6146119775750806330bce3071461189657806331424b67146116ce5780633a00f3bc146116a65780633b1143741461167e57806358ade7ad14611656578063615f64fe146116005780636e3f7f801461150b578063715018a6146114b457806376665977146114975780637857bce9146111a05780638da5cb5b146111795780639227d51914611133578063937f88f7146110f05780639c4cb9e414611066578063c35076701461100e578063d9620efc14610fe6578063dfe07313146104ba578063e2f0edf61461049c578063ec1e31a014610473578063ee1f9f6614610284578063f2fde38b146101fe5763f8b05a301461011b575f80fd5b346101fb5760203660031901126101fb5760043561013c6003548210611b5e565b808252600160205261015e60018060a01b036001604085200154163314611baa565b808252600160205260ff600a60408420015416156101b657808252600160205260408220600a01805460ff1916905533907fb64b9cf8a945b51fe1874de82c53d07297f43b1659eb50c3dbfc2df4317759378380a380f35b60405162461bcd60e51b815260206004820152601960248201527f466163746f72793a20616c726561647920696e616374697665000000000000006044820152606490fd5b80fd5b50346101fb5760203660031901126101fb57610218611b00565b610220611cba565b6001600160a01b031680156102705781546001600160a01b03198116821783556001600160a01b03167f8be0079c531659141344cd1fd0a4f28419497f9722a3daafe3b4186f6b6457e08380a380f35b631e4fbdf760e01b82526004829052602482fd5b50346101fb5760203660031901126101fb5760406020916004358161016084516102ad816119ff565b82815282878201526060868201528260608201528260808201528260a08201528260c08201528260e082015282610100820152826101208201528261014082015201526102fd6003548210611b5e565b8152600183522060405190610311826119ff565b8054825260018101546001600160a01b03168383019081528261033660028401611a3c565b926040820193845260018060a01b03600382015416936060830194855260018060a01b03600483015416906080840191825260018060a01b0360058401541660a0850190815260018060a01b036006850154169060c0860191825260078501549361041960e088019460018060a01b038716865260ff6101008a019760a01c161515875260ff600a60088a0154996101208c019a8b5261014060098201549c019b8c52015416996101608d019a15158b526040518e819f9e829f83525191015260018060a01b0390511660408d01525161018060608d01526101a08c0190611adc565b98516001600160a01b0390811660808c01529051811660a08b01529051811660c08a01529051811660e089015290511661010087015251151561012086015251610140850152516101608401525115156101808301520390f35b50346101fb57806003193601126101fb576006546040516001600160a01b039091168152602090f35b50346101fb57806003193601126101fb576020600354604051908152f35b5034610f06576040366003190112610f06576004356001600160401b038111610f06576104eb90369060040161199a565b9190602435916001600160401b038311610f0657826004019060a06003198536030112610f0657600354935f198514610fd257600185016003556e5af43d82803e903d91602b57fd5bf3600454763d602d80600a3d3981f3363d3d373d3d3d363d7300000062ffffff8260881c16175f526001600160781b03199060781b1617602052603760095ff06001600160a01b038116949092908515610fc3576e5af43d82803e903d91602b57fd5bf3600554763d602d80600a3d3981f3363d3d373d3d3d363d7300000062ffffff8260881c16175f526001600160781b03199060781b161760205260018060a01b03603760095ff016918215610fc3576e5af43d82803e903d91602b57fd5bf3600654763d602d80600a3d3981f3363d3d373d3d3d363d7300000062ffffff8260881c16175f526001600160781b03199060781b161760205260018060a01b03603760095ff016938415610fc3576e5af43d82803e903d91602b57fd5bf3600754763d602d80600a3d3981f3363d3d373d3d3d363d7300000062ffffff8260881c16175f526001600160781b03199060781b161760205260018060a01b03603760095ff016958615610fc3576e5af43d82803e903d91602b57fd5bf3600854763d602d80600a3d3981f3363d3d373d3d3d363d7300000062ffffff8260881c16175f526001600160781b03199060781b161760205260018060a01b03603760095ff016978815610fc35761070a8180611c50565b906001600160401b038211610faf578160051b602081019261072f6040519485611a1b565b83526020830190820191368311610f0657905b828210610f9f57505050805115610f0a575b8a3b15610f06575f61078c8c8293604051948580948193637393943360e11b8352336004840152604060248401526044830190611b16565b03925af18015610efb57610ee6575b50853b15610e595760405163485cc95560e01b81523360048201526001600160a01b03831660248201528481604481838b5af18015610e5d57908591610ed1575b5050893b15610e595760405163137fc25f60e01b8152600481018790528481602481838f5af18015610e5d57908591610ebc575b5050873b15610e595760405163485cc95560e01b8152336004820152602481018590528481604481838d5af18015610e5d57908591610ea7575b50506009546001600160a01b0316608484016108668184611c50565b9050610e6c575b50873b15610e685760405163c0c53b8b60e01b81523360048201526001600160a01b039091166024820152604481018b90528481606481838c5af18015610e5d57908591610e44575b505060248301906108c78282611c85565b9050610d59575b5050853b15610cfc576040516310ba3a5360e21b8152600481018890528381602481838b5af18015610d3957908491610d44575b5050853b15610cfc5760405163137fc25f60e01b8152600481018690528381602481838b5af18015610d3957908491610d24575b5050873b15610cfc5760405163485cc95560e01b81523360048201526001600160a01b039190911660248201528281604481838c5af18015610d1957908391610d00575b5050604481013590811515809203610cfc578686868b8b8f958f90606490604051996109a58b6119ff565b838b526109bb8d60208d019b338d523691611c0b565b9460408c0195865260608c0196875260808c0197885260a08c0198895260c08c01998a5260e08c01526101008b015201356101208901524261014089015260016101608901528852600160205260408820958751875560018060a01b03905116600187019060018060a01b03166bffffffffffffffffffffffff60a01b825416179055518051906001600160401b038211610ce857610a5d60028801546119c7565b601f8111610ca0575b50602090601f8311600114610c2e57918061016098969492600a9896948c92610c23575b50508160011b915f199060031b1c19161760028601555b516003850180546001600160a01b03199081166001600160a01b0393841617909155915160048601805484169183169190911790559151600585018054831691841691909117905591516006840180549093169082161790915560e08501516007830180546101008801516001600160a81b0319909116929093169190911791151560a01b60ff60a01b169190911790556101208401516008820155610140840151600982015591909201519101805491151560ff1660ff199290921691909117905533815260026020526040812080549168010000000000000000831015610c0f575092610be87f8fdac16ee76f5fa82068acabb8ae7c7e6f525839c5ce3077a06e001c4dd1d8c39693610bc2848c9a97600160209f9a97018155611b49565b81549060031b908b821b915f19901b19161790556040519660c0885260c0880191611beb565b978a86015260408501526060840152608083015260a08201528033940390a3604051908152f35b634e487b7160e01b81526041600452602490fd5b015190505f80610a8a565b600288018a52818a209190601f1984168b5b818110610c885750926001928592600a9a98966101609c9a989610610c70575b505050811b016002860155610aa1565b01515f1960f88460031b161c191690555f8080610c60565b92936020600181928786015181550195019301610c40565b600288018a5260208a20601f840160051c81019160208510610cde575b601f0160051c01905b818110610cd35750610a66565b8a8155600101610cc6565b9091508190610cbd565b634e487b7160e01b89526041600452602489fd5b8280fd5b81610d0a91611a1b565b610d1557815f61097a565b5080fd5b6040513d85823e3d90fd5b81610d2e91611a1b565b610cfc57825f610936565b6040513d86823e3d90fd5b81610d4e91611a1b565b610cfc57825f610902565b9792849c979a959199949b96929b5b610d728b8b611c85565b9050811015610e3057610d858b8b611c85565b821015610e1c578e9060a08302018d3b15610d15578160808f9260a49083604051958694859363f0c9a06d60e01b855280356004860152602081013560248601526040810135604486015260608101356064860152013560848401525af18015610e1157610df8575b5050600101610d68565b81610e0291611a1b565b610e0d578d5f610dee565b8d80fd5b6040513d84823e3d90fd5b634e487b7160e01b8f52603260045260248ffd5b509297509398959a92975093985f806108ce565b81610e4e91611a1b565b610e5957835f6108b6565b8380fd5b6040513d87823e3d90fd5b8480fd5b610e77915082611c50565b15610e9357356001600160a01b0381168103610e68575f61086d565b634e487b7160e01b85526032600452602485fd5b81610eb191611a1b565b610e5957835f61084a565b81610ec691611a1b565b610e5957835f610810565b81610edb91611a1b565b610e5957835f6107dc565b610ef39194505f90611a1b565b5f925f61079b565b6040513d5f823e3d90fd5b5f80fd5b50604051610f1960e082611a1b565b600681526020810160c0368237815115610f8b57600a9052805160011015610f8b5760196040820152805160021015610f8b5760326060820152805160031015610f8b5760146080820152805160041015610f8b57600560a0820152805160051015610f8b57601e60c0820152610754565b634e487b7160e01b5f52603260045260245ffd5b8135815260209182019101610742565b634e487b7160e01b5f52604160045260245ffd5b63b06ebf3d60e01b5f5260045ffd5b634e487b7160e01b5f52601160045260245ffd5b34610f06575f366003190112610f06576009546040516001600160a01b039091168152602090f35b34610f06576040366003190112610f0657611027611b00565b6001600160a01b03165f90815260026020526040902080546024359190821015610f065760209161105791611b49565b90549060031b1c604051908152f35b34610f06576020366003190112610f06576001600160a01b03611087611b00565b165f52600260205260405f206040519081602082549182815201915f5260205f20905f5b8181106110da576110d6856110c281870382611a1b565b604051918291602083526020830190611b16565b0390f35b82548452602090930192600192830192016110ab565b34610f06576020366003190112610f0657611109611b00565b611111611cba565b600980546001600160a01b0319166001600160a01b0392909216919091179055005b34610f06576020366003190112610f065760043560035481108061115f575b6020906040519015158152f35b505f526001602052602060ff600a60405f20015416611152565b34610f06575f366003190112610f06575f546040516001600160a01b039091168152602090f35b34610f06576040366003190112610f06576004356001600160401b038111610f06576111d090369060040161199a565b6024356001600160a01b0381169290839003610f06576111ee611cba565b821561145a576111ff368383611c0b565b602081519101206040906008602083516112198582611a1b565b8281520167726567697374727960c01b81522081145f1461128a5750600480546001600160a01b0319811686179091555f516020611ce15f395f51905f5292916001600160a01b0390911690611285905b519283926020845260018060a01b0316956020840191611beb565b0390a3005b600b6020835161129a8582611a1b565b828152016a34b73a32b931b2b83a37b960a91b81522081145f146112f25750600580546001600160a01b0319811686179091555f516020611ce15f395f51905f5292916001600160a01b03909116906112859061126a565b6005602083516113028582611a1b565b82815201641d985d5b1d60da1b81522081145f146113545750600680546001600160a01b0319811686179091555f516020611ce15f395f51905f5292916001600160a01b03909116906112859061126a565b6008602083516113648582611a1b565b82815201673b32b934b334b2b960c11b81522081145f146113b95750600780546001600160a01b0319811686179091555f516020611ce15f395f51905f5292916001600160a01b03909116906112859061126a565b6003602083516113c98582611a1b565b82815201621b999d60ea1b815220145f1461141757600880546001600160a01b0319811686179091555f516020611ce15f395f51905f5292916001600160a01b03909116906112859061126a565b5162461bcd60e51b815260206004820152601960248201527f466163746f72793a20756e6b6e6f776e20636f6e7472616374000000000000006044820152606490fd5b60405162461bcd60e51b8152602060048201526015602482015274466163746f72793a207a65726f206164647265737360581b6044820152606490fd5b34610f06575f366003190112610f06576020600354604051908152f35b34610f06575f366003190112610f06576114cc611cba565b5f80546001600160a01b0319811682556001600160a01b03167f8be0079c531659141344cd1fd0a4f28419497f9722a3daafe3b4186f6b6457e08280a3005b34610f06576020366003190112610f06576004355f52600160205260405f20805460018060a01b036001830154169161154660028201611a3c565b60018060a01b036003830154169160018060a01b0360048201541660ff60018060a01b0360058401541660018060a01b036006850154166007850154916008860154946115b985600a60098a015499015416986040519c8d9c8d5260208d015261018060408d01526101808c0190611adc565b9860608b015260808a015260a089015260c088015260018060a01b03811660e088015260a01c16151561010086015261012085015261014084015215156101608301520390f35b34610f06575f366003190112610f0657600454600554600654600754600854604080516001600160a01b03968716815294861660208601529285169284019290925283166060830152909116608082015260a090f35b34610f06575f366003190112610f06576007546040516001600160a01b039091168152602090f35b34610f06575f366003190112610f06576008546040516001600160a01b039091168152602090f35b34610f06575f366003190112610f06576005546040516001600160a01b039091168152602090f35b34610f06576020366003190112610f06576004356001600160401b038111610f06576116fe90369060040161199a565b906040519060a082018281106001600160401b03821117610faf578284916040526060815260208101606081526040820160018152606083015f815260808401916060835261178561176a60405198899863dfe0731360e01b8a52604060048b015260448a0191611beb565b878103600319016024890152955160a0808852870190611b16565b9351938581036020870152602080865192838152019501905f5b81811061185057505050511515604085015251606084015251916080818303910152602080835192838152019201905f5b81811061182e5784602081808703815f305af18015610efb575f906117fb575b602090604051908152f35b506020813d602011611826575b8161181560209383611a1b565b81010312610f0657602090516117f0565b3d9150611808565b82516001600160a01b03168452859450602093840193909201916001016117d0565b825180518852602081810151818a0152604080830151908a0152606080830151908a0152608091820151918901919091528a995060a0909701969092019160010161179f565b34610f06576020366003190112610f06576004356118b76003548210611b5e565b805f5260016020526118d960018060a01b03600160405f200154163314611baa565b805f52600160205260ff600a60405f2001541661193257805f526001602052600a60405f2001600160ff1982541617905533907ff2244021974071a3546ceab8f0c78d951de9f24b4df9179f7e2f45d8bacb205a5f80a3005b60405162461bcd60e51b815260206004820152601760248201527f466163746f72793a20616c7265616479206163746976650000000000000000006044820152606490fd5b34610f06575f366003190112610f06576004546001600160a01b03168152602090f35b9181601f84011215610f06578235916001600160401b038311610f065760208381860195010111610f0657565b90600182811c921680156119f5575b60208310146119e157565b634e487b7160e01b5f52602260045260245ffd5b91607f16916119d6565b61018081019081106001600160401b03821117610faf57604052565b90601f801991011681019081106001600160401b03821117610faf57604052565b9060405191825f825492611a4f846119c7565b8084529360018116908115611aba5750600114611a76575b50611a7492500383611a1b565b565b90505f9291925260205f20905f915b818310611a9e575050906020611a74928201015f611a67565b6020919350806001915483858901015201910190918492611a85565b905060209250611a7494915060ff191682840152151560051b8201015f611a67565b805180835260209291819084018484015e5f828201840152601f01601f1916010190565b600435906001600160a01b0382168203610f0657565b90602080835192838152019201905f5b818110611b335750505090565b8251845260209384019390920191600101611b26565b8054821015610f8b575f5260205f2001905f90565b15611b6557565b60405162461bcd60e51b815260206004820152601960248201527f466163746f72793a20696e76616c696420636861696e204944000000000000006044820152606490fd5b15611bb157565b60405162461bcd60e51b81526020600482015260126024820152712330b1ba37b93c9d103737ba1030b236b4b760711b6044820152606490fd5b908060209392818452848401375f828201840152601f01601f1916010190565b9291926001600160401b038211610faf5760405191611c34601f8201601f191660200184611a1b565b829481845281830111610f06578281602093845f960137010152565b903590601e1981360301821215610f0657018035906001600160401b038211610f0657602001918160051b36038313610f0657565b903590601e1981360301821215610f0657018035906001600160401b038211610f06576020019160a0820236038313610f0657565b5f546001600160a01b03163303611ccd57565b63118cdaa760e01b5f523360045260245ffdfe2255c4b39068cc7208e9c29b0fc9a3d106b3a41ada38999656d54aa44a6dc9e8a26469706673582212207a617e44daa8060b1f56bcbcd2554c3fe64fd3fcfdaf277e469628d135d119f664736f6c634300081c0033",
  "linkReferences": {},
  "deployedLinkReferences": {},
  "immutableReferences": {},
  "inputSourceName": "project/contracts/CreditChainFactory.sol",
  "buildInfoId": "solc-0_8_28-54f4d33fbd6bee6ad0f39cec6015690d06dbd38f"
}