{
  "_format": "hh3-artifact-1",
  "contractName": "GhostScoreVerifier",
  "sourceName": "contracts/GhostScoreVerifier.sol",
  "abi": [
    {
      "inputs": [],
      "stateMutability": "nonpayable",
      "type": "constructor"
    },
    {
      "inputs": [],
      "name": "InvalidInitialization",
      "type": "error"
    },
    {
      "inputs": [],
      "name": "NotInitializing",
      "type": "error"
    },
    {
      "inputs": [
        {
          "internalType": "address",
          "name": "owner",
          "type": "address"
        }
      ],
      "name": "OwnableInvalidOwner",
      "type": "error"
    },
    {
      "inputs": [
        {
          "internalType": "address",
          "name": "account",
          "type": "address"
        }
      ],
      "name": "OwnableUnauthorizedAccount",
      "type": "error"
    },
    {
      "anonymous": false,
      "inputs": [
        {
          "indexed": true,
          "internalType": "address",
          "name": "user",
          "type": "address"
        },
        {
          "indexed": true,
          "internalType": "uint256",
          "name": "attestationIndex",
          "type": "uint256"
        }
      ],
      "name": "AttestationInvalidated",
      "type": "event"
    },
    {
      "anonymous": false,
      "inputs": [
        {
          "indexed": true,
          "internalType": "bytes32",
          "name": "userCommitment",
          "type": "bytes32"
        },
        {
          "indexed": false,
          "internalType": "uint256",
          "name": "scoreThreshold",
          "type": "uint256"
        },
        {
          "indexed": false,
          "internalType": "uint256",
          "name": "timestamp",
          "type": "uint256"
        }
      ],
      "name": "GhostScoreVerified",
      "type": "event"
    },
    {
      "anonymous": false,
      "inputs": [
        {
          "indexed": false,
          "internalType": "uint64",
          "name": "version",
          "type": "uint64"
        }
      ],
      "name": "Initialized",
      "type": "event"
    },
    {
      "anonymous": false,
      "inputs": [
        {
          "indexed": true,
          "internalType": "address",
          "name": "previousOwner",
          "type": "address"
        },
        {
          "indexed": true,
          "internalType": "address",
          "name": "newOwner",
          "type": "address"
        }
      ],
      "name": "OwnershipTransferred",
      "type": "event"
    },
    {
      "anonymous": false,
      "inputs": [
        {
          "indexed": true,
          "internalType": "address",
          "name": "oldVerifier",
          "type": "address"
        },
        {
          "indexed": true,
          "internalType": "address",
          "name": "newVerifier",
          "type": "address"
        }
      ],
      "name": "VerifierUpdated",
      "type": "event"
    },
    {
      "inputs": [
        {
          "internalType": "address",
          "name": "",
          "type": "address"
        },
        {
          "internalType": "uint256",
          "name": "",
          "type": "uint256"
        }
      ],
      "name": "attestations",
      "outputs": [
        {
          "internalType": "uint256",
          "name": "scoreThreshold",
          "type": "uint256"
        },
        {
          "internalType": "uint256",
          "name": "timestamp",
          "type": "uint256"
        },
        {
          "internalType": "bool",
          "name": "valid",
          "type": "bool"
        }
      ],
      "stateMutability": "view",
      "type": "function"
    },
    {
      "inputs": [
        {
          "internalType": "bytes32",
          "name": "",
          "type": "bytes32"
        }
      ],
      "name": "commitmentToAddress",
      "outputs": [
        {
          "internalType": "address",
          "name": "",
          "type": "address"
        }
      ],
      "stateMutability": "view",
      "type": "function"
    },
    {
      "inputs": [
        {
          "internalType": "address",
          "name": "user",
          "type": "address"
        },
        {
          "internalType": "uint256",
          "name": "index",
          "type": "uint256"
        }
      ],
      "name": "getAttestation",
      "outputs": [
        {
          "components": [
            {
              "internalType": "uint256",
              "name": "scoreThreshold",
              "type": "uint256"
            },
            {
              "internalType": "uint256",
              "name": "timestamp",
              "type": "uint256"
            },
            {
              "internalType": "bool",
              "name": "valid",
              "type": "bool"
            }
          ],
          "internalType": "struct IGhostScoreVerifier.GhostScoreAttestation",
          "name": "",
          "type": "tuple"
        }
      ],
      "stateMutability": "view",
      "type": "function"
    },
    {
      "inputs": [
        {
          "internalType": "address",
          "name": "user",
          "type": "address"
        }
      ],
      "name": "getAttestationCount",
      "outputs": [
        {
          "internalType": "uint256",
          "name": "",
          "type": "uint256"
        }
      ],
      "stateMutability": "view",
      "type": "function"
    },
    {
      "inputs": [
        {
          "internalType": "address",
          "name": "user",
          "type": "address"
        }
      ],
      "name": "getLatestAttestation",
      "outputs": [
        {
          "components": [
            {
              "internalType": "uint256",
              "name": "scoreThreshold",
              "type": "uint256"
            },
            {
              "internalType": "uint256",
              "name": "timestamp",
              "type": "uint256"
            },
            {
              "internalType": "bool",
              "name": "valid",
              "type": "bool"
            }
          ],
          "internalType": "struct IGhostScoreVerifier.GhostScoreAttestation",
          "name": "attestation",
          "type": "tuple"
        },
        {
          "internalType": "bool",
          "name": "exists",
          "type": "bool"
        }
      ],
      "stateMutability": "view",
      "type": "function"
    },
    {
      "inputs": [
        {
          "internalType": "address",
          "name": "user",
          "type": "address"
        },
        {
          "internalType": "uint256",
          "name": "minThreshold",
          "type": "uint256"
        }
      ],
      "name": "hasValidAttestation",
      "outputs": [
        {
          "internalType": "bool",
          "name": "",
          "type": "bool"
        }
      ],
      "stateMutability": "view",
      "type": "function"
    },
    {
      "inputs": [
        {
          "internalType": "address",
          "name": "_owner",
          "type": "address"
        },
        {
          "internalType": "address",
          "name": "_verifier",
          "type": "address"
        }
      ],
      "name": "initialize",
      "outputs": [],
      "stateMutability": "nonpayable",
      "type": "function"
    },
    {
      "inputs": [
        {
          "internalType": "uint256",
          "name": "index",
          "type": "uint256"
        }
      ],
      "name": "invalidateAttestation",
      "outputs": [],
      "stateMutability": "nonpayable",
      "type": "function"
    },
    {
      "inputs": [],
      "name": "mockMode",
      "outputs": [
        {
          "internalType": "bool",
          "name": "",
          "type": "bool"
        }
      ],
      "stateMutability": "view",
      "type": "function"
    },
    {
      "inputs": [],
      "name": "owner",
      "outputs": [
        {
          "internalType": "address",
          "name": "",
          "type": "address"
        }
      ],
      "stateMutability": "view",
      "type": "function"
    },
    {
      "inputs": [],
      "name": "renounceOwnership",
      "outputs": [],
      "stateMutability": "nonpayable",
      "type": "function"
    },
    {
      "inputs": [
        {
          "internalType": "bool",
          "name": "enabled",
          "type": "bool"
        }
      ],
      "name": "setMockMode",
      "outputs": [],
      "stateMutability": "nonpayable",
      "type": "function"
    },
    {
      "inputs": [
        {
          "internalType": "address",
          "name": "verifier",
          "type": "address"
        }
      ],
      "name": "setVerifier",
      "outputs": [],
      "stateMutability": "nonpayable",
      "type": "function"
    },
    {
      "inputs": [
        {
          "internalType": "address",
          "name": "newOwner",
          "type": "address"
        }
      ],
      "name": "transferOwnership",
      "outputs": [],
      "stateMutability": "nonpayable",
      "type": "function"
    },
    {
      "inputs": [],
      "name": "ultraVerifier",
      "outputs": [
        {
          "internalType": "address",
          "name": "",
          "type": "address"
        }
      ],
      "stateMutability": "view",
      "type": "function"
    },
    {
      "inputs": [
        {
          "internalType": "bytes32",
          "name": "",
          "type": "bytes32"
        }
      ],
      "name": "usedProofs",
      "outputs": [
        {
          "internalType": "bool",
          "name": "",
          "type": "bool"
        }
      ],
      "stateMutability": "view",
      "type": "function"
    },
    {
      "inputs": [
        {
          "internalType": "bytes",
          "name": "proof",
          "type": "bytes"
        },
        {
          "internalType": "bytes32[]",
          "name": "publicInputs",
          "type": "bytes32[]"
        }
      ],
      "name": "verifyAndAttest",
      "outputs": [
        {
          "internalType": "bool",
          "name": "success",
          "type": "bool"
        }
      ],
      "stateMutability": "nonpayable",
      "type": "function"
    }
  ],
  "bytecode": "0x6080806040523460aa575f516020610ed15f395f51905f525460ff8160401c16609b576002600160401b03196001600160401b038216016049575b604051610e2290816100af8239f35b6001600160401b0319166001600160401b039081175f516020610ed15f395f51905f525581527fc7f505b2f371ae2175ee4913f4499e1f2633a7b5936321eed1cdaeb6115181d290602090a15f80603a565b63f92ee8a960e01b5f5260045ffd5b5f80fdfe60806040526004361015610011575f80fd5b5f3560e01c8063080f522c14610a895780630c0faf2c146106505780633072eab8146105dd578063343e2493146105b6578063485cc955146104335780635437988d146103bc578063633c0bbc14610384578063715018a61461031d578063751222c9146102fb57806376af06a9146102c9578063888e1c7d1461023e5780638da5cb5b1461020a578063b6925afe146101d2578063b938ebb4146101a1578063c30a0f2514610172578063c657c6a5146101035763f2fde38b146100d4575f80fd5b346100ff5760203660031901126100ff576100fd6100f0610ad8565b6100f8610d4e565b610cdd565b005b5f80fd5b346100ff5760403660031901126100ff5761011c610ad8565b6001600160a01b03165f908152600160205260409020805460243591908210156100ff5760609161014c91610aee565b5080549060ff600260018301549201541690604051928352602083015215156040820152f35b346100ff5760203660031901126100ff576004355f526003602052602060ff60405f2054166040519015158152f35b346100ff5760403660031901126100ff5760206101c86101bf610ad8565b60243590610c70565b6040519015158152f35b346100ff5760203660031901126100ff576004358015158091036100ff576101f8610d4e565b60ff8019600454169116176004555f80f35b346100ff575f3660031901126100ff575f516020610dad5f395f51905f52546040516001600160a01b039091168152602090f35b346100ff5760403660031901126100ff5760606102a461029e61025f610ad8565b6024359061026b610b45565b506001600160a01b03165f8181526001602052604090205461028e908310610c1a565b5f52600160205260405f20610aee565b50610b63565b6102c7604051809260408091805184526020810151602085015201511515910152565bf35b346100ff5760203660031901126100ff576004355f526002602052602060018060a01b0360405f205416604051908152f35b346100ff575f3660031901126100ff57602060ff600454166040519015158152f35b346100ff575f3660031901126100ff57610335610d4e565b5f516020610dad5f395f51905f5280546001600160a01b031981169091555f906001600160a01b03167f8be0079c531659141344cd1fd0a4f28419497f9722a3daafe3b4186f6b6457e08280a3005b346100ff5760203660031901126100ff576001600160a01b036103a5610ad8565b165f526001602052602060405f2054604051908152f35b346100ff5760203660031901126100ff576103d5610ad8565b6103dd610d4e565b5f80546001600160a01b039283166001600160a01b03198216811783556004805460ff191660ff8315161790559216907f0243549a92b2412f7a3caf7a2e56d65b8821b91345363faa5f57195384065fcc9080a3005b346100ff5760403660031901126100ff5761044c610ad8565b6024356001600160a01b038116908190036100ff575f516020610dcd5f395f51905f525460ff8160401c16159267ffffffffffffffff8216801590816105ae575b60011490816105a4575b15908161059b575b5061058c5767ffffffffffffffff1982166001175f516020610dcd5f395f51905f52556104dd9184610560575b506104d5610d81565b6100f8610d81565b806bffffffffffffffffffffffff60a01b5f5416175f5560ff8019600454169115161760045561050957005b68ff0000000000000000195f516020610dcd5f395f51905f5254165f516020610dcd5f395f51905f52557fc7f505b2f371ae2175ee4913f4499e1f2633a7b5936321eed1cdaeb6115181d2602060405160018152a1005b68ffffffffffffffffff191668010000000000000001175f516020610dcd5f395f51905f5255846104cc565b63f92ee8a960e01b5f5260045ffd5b9050158561049f565b303b159150610497565b85915061048d565b346100ff575f3660031901126100ff575f546040516001600160a01b039091168152602090f35b346100ff5760203660031901126100ff57600435335f52600160205261060860405f20548210610c1a565b335f526001602052600261061f8260405f20610aee565b5001805460ff19169055337f2ad3e43ca9a60acdb5943d71195c85dcbc9957bd553d3ce8be500e439ea5c9ca5f80a3005b346100ff5760403660031901126100ff5760043567ffffffffffffffff81116100ff57366023820112156100ff57806004013567ffffffffffffffff81116100ff57602482019160248236920101116100ff576024359067ffffffffffffffff82116100ff57366023830112156100ff5781600401359267ffffffffffffffff84116100ff5760248301938060051b9136602484870101116100ff5760028210610a39578115610a25578535948260011015610a255760440135956040516020810190868483375f87820160208101918252906001600160fb1b0387116100ff5760208861074d938188879537010103601f198101835282610b23565b519020805f52600360205260ff60405f2054166109d1575f52600360205260405f20600160ff1982541617905560ff600454165f146108da57505050505060015b1561088b57335f52600160205260405f20604051916107ac83610b07565b8083526020830191428352604084019060018252805468010000000000000000811015610877576107e291600182018155610aee565b949094610864577f3132d6c3b13b548b8b1e9340ced514b0ae659411f1901c69d992bf77e796647494604094600292518255516001820155019051151560ff80198354169116179055835f526002602052815f20336bffffffffffffffffffffffff60a01b8254161790558151908152426020820152a2602060405160018152f35b634e487b7160e01b5f525f60045260245ffd5b634e487b7160e01b5f52604160045260245ffd5b60405162461bcd60e51b815260206004820152602160248201527f47686f737453636f726556657269666965723a20696e76616c69642070726f6f6044820152603360f91b6064820152608490fd5b61095060205f966084889760018060a01b038954169781604051978589968888019b633a94343960e21b8d52604060248a01528160648a0152878901378c868289010152601f801991011686019260231986888603010160448801528584015260a483013701010301601f198101835282610b23565b51915afa3d156109c9573d9067ffffffffffffffff82116108775760405191610983601f8201601f191660200184610b23565b82523d5f602084013e5b806109bd575b156109b6576020818051810103126100ff5760200151801515811461078e575f80fd5b505f61078e565b50602081511015610993565b60609061098d565b60405162461bcd60e51b815260206004820152602660248201527f47686f737453636f726556657269666965723a2070726f6f6620616c726561646044820152651e481d5cd95960d21b6064820152608490fd5b634e487b7160e01b5f52603260045260245ffd5b60405162461bcd60e51b815260206004820152602260248201527f47686f737453636f726556657269666965723a20696e76616c696420696e7075604482015261747360f01b6064820152608490fd5b346100ff5760203660031901126100ff576080610aac610aa7610ad8565b610b90565b610acf604051809360408091805184526020810151602085015201511515910152565b15156060820152f35b600435906001600160a01b03821682036100ff57565b8054821015610a25575f52600360205f20910201905f90565b6060810190811067ffffffffffffffff82111761087757604052565b90601f8019910116810190811067ffffffffffffffff82111761087757604052565b60405190610b5282610b07565b5f6040838281528260208201520152565b90604051610b7081610b07565b604060ff6002839580548552600181015460208601520154161515910152565b610b98610b45565b6001600160a01b039091165f9081526001602052604090208054805b610bbf575050905f90565b5f198101818111610bf05760ff6002610bd88386610aee565b50015416610c0457508015610bf0575f190180610bb4565b634e487b7160e01b5f52601160045260245ffd5b9050610c14925061029e91610aee565b90600190565b15610c2157565b60405162461bcd60e51b815260206004820152602160248201527f47686f737453636f726556657269666965723a20696e76616c696420696e64656044820152600f60fb1b6064820152608490fd5b6001600160a01b03165f90815260016020526040812080549290915b838110610c9b57505050505f90565b60ff6002610ca98386610aee565b5001541680610cc8575b610cbf57600101610c8c565b50505050600190565b5081610cd48285610aee565b50541015610cb3565b6001600160a01b03168015610d3b575f516020610dad5f395f51905f5280546001600160a01b0319811683179091556001600160a01b03167f8be0079c531659141344cd1fd0a4f28419497f9722a3daafe3b4186f6b6457e05f80a3565b631e4fbdf760e01b5f525f60045260245ffd5b5f516020610dad5f395f51905f52546001600160a01b03163303610d6e57565b63118cdaa760e01b5f523360045260245ffd5b60ff5f516020610dcd5f395f51905f525460401c1615610d9d57565b631afcd79f60e31b5f5260045ffdfe9016d09d72d40fdae2fd8ceac6b6234c7706214fd39c1cd1e609a0528c199300f0c57e16840df040f15088dc2f81fe391c3923bec73e23a9662efc9c229c6a00a2646970667358221220b1b725d83c9b2f61413d4430a3f4e119e62cb227ffd41aa8a59f995c7c62834a64736f6c634300081c0033f0c57e16840df040f15088dc2f81fe391c3923bec73e23a9662efc9c229c6a00",
  "linkReferences": {},
  "deployedLinkReferences": {},
  "immutableReferences": {},
  "inputSourceName": "project/contracts/GhostScoreVerifier.sol",
  "buildInfoId": "solc-0_8_28-5418b19720b65bf3bb7d04675ca0e3b88bb93457"
}