{
  "_format": "hh3-artifact-1",
  "contractName": "CreditInterceptor",
  "sourceName": "contracts/CreditInterceptor.sol",
  "abi": [
    {
      "inputs": [],
      "stateMutability": "nonpayable",
      "type": "constructor"
    },
    {
      "inputs": [],
      "name": "InvalidInitialization",
      "type": "error"
    },
    {
      "inputs": [],
      "name": "NotInitializing",
      "type": "error"
    },
    {
      "inputs": [
        {
          "internalType": "address",
          "name": "owner",
          "type": "address"
        }
      ],
      "name": "OwnableInvalidOwner",
      "type": "error"
    },
    {
      "inputs": [
        {
          "internalType": "address",
          "name": "account",
          "type": "address"
        }
      ],
      "name": "OwnableUnauthorizedAccount",
      "type": "error"
    },
    {
      "inputs": [],
      "name": "ReentrancyGuardReentrantCall",
      "type": "error"
    },
    {
      "inputs": [
        {
          "internalType": "address",
          "name": "token",
          "type": "address"
        }
      ],
      "name": "SafeERC20FailedOperation",
      "type": "error"
    },
    {
      "anonymous": false,
      "inputs": [
        {
          "indexed": false,
          "internalType": "uint64",
          "name": "version",
          "type": "uint64"
        }
      ],
      "name": "Initialized",
      "type": "event"
    },
    {
      "anonymous": false,
      "inputs": [
        {
          "indexed": true,
          "internalType": "address",
          "name": "user",
          "type": "address"
        },
        {
          "indexed": true,
          "internalType": "address",
          "name": "token",
          "type": "address"
        },
        {
          "indexed": false,
          "internalType": "uint256",
          "name": "amount",
          "type": "uint256"
        }
      ],
      "name": "LendIntercepted",
      "type": "event"
    },
    {
      "anonymous": false,
      "inputs": [
        {
          "indexed": true,
          "internalType": "address",
          "name": "user",
          "type": "address"
        },
        {
          "indexed": true,
          "internalType": "address",
          "name": "token0",
          "type": "address"
        },
        {
          "indexed": true,
          "internalType": "address",
          "name": "token1",
          "type": "address"
        },
        {
          "indexed": false,
          "internalType": "uint256",
          "name": "amount0",
          "type": "uint256"
        },
        {
          "indexed": false,
          "internalType": "uint256",
          "name": "amount1",
          "type": "uint256"
        }
      ],
      "name": "LiquidityProvided",
      "type": "event"
    },
    {
      "anonymous": false,
      "inputs": [
        {
          "indexed": true,
          "internalType": "address",
          "name": "previousOwner",
          "type": "address"
        },
        {
          "indexed": true,
          "internalType": "address",
          "name": "newOwner",
          "type": "address"
        }
      ],
      "name": "OwnershipTransferred",
      "type": "event"
    },
    {
      "anonymous": false,
      "inputs": [
        {
          "indexed": true,
          "internalType": "address",
          "name": "protocol",
          "type": "address"
        }
      ],
      "name": "ProtocolRemoved",
      "type": "event"
    },
    {
      "anonymous": false,
      "inputs": [
        {
          "indexed": true,
          "internalType": "address",
          "name": "protocol",
          "type": "address"
        }
      ],
      "name": "ProtocolWhitelisted",
      "type": "event"
    },
    {
      "anonymous": false,
      "inputs": [
        {
          "indexed": true,
          "internalType": "address",
          "name": "oldRegistry",
          "type": "address"
        },
        {
          "indexed": true,
          "internalType": "address",
          "name": "newRegistry",
          "type": "address"
        }
      ],
      "name": "RegistryUpdated",
      "type": "event"
    },
    {
      "anonymous": false,
      "inputs": [
        {
          "indexed": true,
          "internalType": "address",
          "name": "user",
          "type": "address"
        },
        {
          "indexed": true,
          "internalType": "uint256",
          "name": "loanId",
          "type": "uint256"
        },
        {
          "indexed": false,
          "internalType": "uint256",
          "name": "amount",
          "type": "uint256"
        }
      ],
      "name": "RepayIntercepted",
      "type": "event"
    },
    {
      "anonymous": false,
      "inputs": [
        {
          "indexed": true,
          "internalType": "address",
          "name": "user",
          "type": "address"
        },
        {
          "indexed": false,
          "internalType": "uint256",
          "name": "amount",
          "type": "uint256"
        }
      ],
      "name": "StakeIntercepted",
      "type": "event"
    },
    {
      "anonymous": false,
      "inputs": [
        {
          "indexed": true,
          "internalType": "address",
          "name": "user",
          "type": "address"
        },
        {
          "indexed": true,
          "internalType": "address",
          "name": "tokenIn",
          "type": "address"
        },
        {
          "indexed": true,
          "internalType": "address",
          "name": "tokenOut",
          "type": "address"
        },
        {
          "indexed": false,
          "internalType": "uint256",
          "name": "amountIn",
          "type": "uint256"
        },
        {
          "indexed": false,
          "internalType": "uint256",
          "name": "amountOut",
          "type": "uint256"
        }
      ],
      "name": "SwapIntercepted",
      "type": "event"
    },
    {
      "anonymous": false,
      "inputs": [
        {
          "indexed": true,
          "internalType": "address",
          "name": "user",
          "type": "address"
        },
        {
          "indexed": true,
          "internalType": "address",
          "name": "to",
          "type": "address"
        },
        {
          "indexed": true,
          "internalType": "address",
          "name": "token",
          "type": "address"
        },
        {
          "indexed": false,
          "internalType": "uint256",
          "name": "amount",
          "type": "uint256"
        }
      ],
      "name": "TransferIntercepted",
      "type": "event"
    },
    {
      "inputs": [],
      "name": "creditVault",
      "outputs": [
        {
          "internalType": "address",
          "name": "",
          "type": "address"
        }
      ],
      "stateMutability": "view",
      "type": "function"
    },
    {
      "inputs": [],
      "name": "dexRouter",
      "outputs": [
        {
          "internalType": "address",
          "name": "",
          "type": "address"
        }
      ],
      "stateMutability": "view",
      "type": "function"
    },
    {
      "inputs": [],
      "name": "getRegistry",
      "outputs": [
        {
          "internalType": "address",
          "name": "",
          "type": "address"
        }
      ],
      "stateMutability": "view",
      "type": "function"
    },
    {
      "inputs": [
        {
          "internalType": "address",
          "name": "_owner",
          "type": "address"
        },
        {
          "internalType": "address",
          "name": "_registry",
          "type": "address"
        }
      ],
      "name": "initialize",
      "outputs": [],
      "stateMutability": "nonpayable",
      "type": "function"
    },
    {
      "inputs": [
        {
          "internalType": "address",
          "name": "token",
          "type": "address"
        },
        {
          "internalType": "uint256",
          "name": "amount",
          "type": "uint256"
        }
      ],
      "name": "interceptLend",
      "outputs": [],
      "stateMutability": "nonpayable",
      "type": "function"
    },
    {
      "inputs": [
        {
          "internalType": "address",
          "name": "token0",
          "type": "address"
        },
        {
          "internalType": "address",
          "name": "token1",
          "type": "address"
        },
        {
          "internalType": "uint256",
          "name": "amount0",
          "type": "uint256"
        },
        {
          "internalType": "uint256",
          "name": "amount1",
          "type": "uint256"
        }
      ],
      "name": "interceptProvideLiquidity",
      "outputs": [],
      "stateMutability": "nonpayable",
      "type": "function"
    },
    {
      "inputs": [
        {
          "internalType": "uint256",
          "name": "loanId",
          "type": "uint256"
        },
        {
          "internalType": "uint256",
          "name": "amount",
          "type": "uint256"
        }
      ],
      "name": "interceptRepay",
      "outputs": [],
      "stateMutability": "nonpayable",
      "type": "function"
    },
    {
      "inputs": [
        {
          "internalType": "uint256",
          "name": "amount",
          "type": "uint256"
        }
      ],
      "name": "interceptStake",
      "outputs": [],
      "stateMutability": "payable",
      "type": "function"
    },
    {
      "inputs": [
        {
          "internalType": "address",
          "name": "tokenIn",
          "type": "address"
        },
        {
          "internalType": "address",
          "name": "tokenOut",
          "type": "address"
        },
        {
          "internalType": "uint256",
          "name": "amountIn",
          "type": "uint256"
        },
        {
          "internalType": "uint256",
          "name": "minAmountOut",
          "type": "uint256"
        }
      ],
      "name": "interceptSwap",
      "outputs": [
        {
          "internalType": "uint256",
          "name": "amountOut",
          "type": "uint256"
        }
      ],
      "stateMutability": "payable",
      "type": "function"
    },
    {
      "inputs": [
        {
          "internalType": "address",
          "name": "to",
          "type": "address"
        },
        {
          "internalType": "address",
          "name": "token",
          "type": "address"
        },
        {
          "internalType": "uint256",
          "name": "amount",
          "type": "uint256"
        }
      ],
      "name": "interceptTransfer",
      "outputs": [],
      "stateMutability": "nonpayable",
      "type": "function"
    },
    {
      "inputs": [
        {
          "internalType": "address",
          "name": "protocol",
          "type": "address"
        }
      ],
      "name": "isWhitelisted",
      "outputs": [
        {
          "internalType": "bool",
          "name": "",
          "type": "bool"
        }
      ],
      "stateMutability": "view",
      "type": "function"
    },
    {
      "inputs": [],
      "name": "lendingPool",
      "outputs": [
        {
          "internalType": "address",
          "name": "",
          "type": "address"
        }
      ],
      "stateMutability": "view",
      "type": "function"
    },
    {
      "inputs": [],
      "name": "owner",
      "outputs": [
        {
          "internalType": "address",
          "name": "",
          "type": "address"
        }
      ],
      "stateMutability": "view",
      "type": "function"
    },
    {
      "inputs": [],
      "name": "registry",
      "outputs": [
        {
          "internalType": "contract ICreditRegistry",
          "name": "",
          "type": "address"
        }
      ],
      "stateMutability": "view",
      "type": "function"
    },
    {
      "inputs": [
        {
          "internalType": "address",
          "name": "protocol",
          "type": "address"
        }
      ],
      "name": "removeProtocol",
      "outputs": [],
      "stateMutability": "nonpayable",
      "type": "function"
    },
    {
      "inputs": [],
      "name": "renounceOwnership",
      "outputs": [],
      "stateMutability": "nonpayable",
      "type": "function"
    },
    {
      "inputs": [
        {
          "internalType": "address",
          "name": "_creditVault",
          "type": "address"
        }
      ],
      "name": "setCreditVault",
      "outputs": [],
      "stateMutability": "nonpayable",
      "type": "function"
    },
    {
      "inputs": [
        {
          "internalType": "address",
          "name": "_dexRouter",
          "type": "address"
        }
      ],
      "name": "setDexRouter",
      "outputs": [],
      "stateMutability": "nonpayable",
      "type": "function"
    },
    {
      "inputs": [
        {
          "internalType": "address",
          "name": "_lendingPool",
          "type": "address"
        }
      ],
      "name": "setLendingPool",
      "outputs": [],
      "stateMutability": "nonpayable",
      "type": "function"
    },
    {
      "inputs": [
        {
          "internalType": "address",
          "name": "_registry",
          "type": "address"
        }
      ],
      "name": "setRegistry",
      "outputs": [],
      "stateMutability": "nonpayable",
      "type": "function"
    },
    {
      "inputs": [
        {
          "internalType": "address",
          "name": "_stakingContract",
          "type": "address"
        }
      ],
      "name": "setStakingContract",
      "outputs": [],
      "stateMutability": "nonpayable",
      "type": "function"
    },
    {
      "inputs": [],
      "name": "stakingContract",
      "outputs": [
        {
          "internalType": "address",
          "name": "",
          "type": "address"
        }
      ],
      "stateMutability": "view",
      "type": "function"
    },
    {
      "inputs": [
        {
          "internalType": "address",
          "name": "newOwner",
          "type": "address"
        }
      ],
      "name": "transferOwnership",
      "outputs": [],
      "stateMutability": "nonpayable",
      "type": "function"
    },
    {
      "inputs": [
        {
          "internalType": "address",
          "name": "protocol",
          "type": "address"
        }
      ],
      "name": "whitelistProtocol",
      "outputs": [],
      "stateMutability": "nonpayable",
      "type": "function"
    },
    {
      "inputs": [
        {
          "internalType": "address",
          "name": "",
          "type": "address"
        }
      ],
      "name": "whitelistedProtocols",
      "outputs": [
        {
          "internalType": "bool",
          "name": "",
          "type": "bool"
        }
      ],
      "stateMutability": "view",
      "type": "function"
    },
    {
      "stateMutability": "payable",
      "type": "receive"
    }
  ],
  "bytecode": "0x6080806040523460aa575f5160206113d35f395f51905f525460ff8160401c16609b576002600160401b03196001600160401b038216016049575b60405161132490816100af8239f35b6001600160401b0319166001600160401b039081175f5160206113d35f395f51905f525581527fc7f505b2f371ae2175ee4913f4499e1f2633a7b5936321eed1cdaeb6115181d290602090a15f80603a565b63f92ee8a960e01b5f5260045ffd5b5f80fdfe6080604052600436101561001a575b3615610018575f80fd5b005b5f5f3560e01c80630506d5b114610ed25780630758d92414610eaa57806309d92f2a14610d40578063113aa8b114610d0057806313d1d3e414610c8c57806318ff576814610c265780632095db8814610b5357806330d2789914610a5c5780633af32abf146104d2578063483c4a821461084e578063485cc955146106765780634c2a554b146105a15780635ab1bd5314610511578063715018a6146105385780637b1039991461051157806384361c07146104d25780638da5cb5b1461049d5780639dd373b91461045d578063a59a997314610434578063a91ee0dc146103bd578063e2498f7214610394578063ee99205c1461036b578063f2fde38b1461033e578063f72f863b146102fe5763fea3ccd914610138575061000e565b346102fb5761014636610f41565b919092610151611188565b6001600160a01b031691821515806102e9575b61016d90610f7f565b8315801580916102e0575b1561029b5761028a575b80610270575b80840180851161025c57855486916001600160a01b0390911690813b156102585760405163970a459b60e01b81523360048201526005602482015260448101919091529082908290606490829084905af1801561024d57610234575b5050604051938452602084015260018060a01b0316917f5a0dcb149b76fe27a709fb80548b9856459be7b85410d5542f57b682af9ad85060403392a460015f5160206112af5f395f51905f525580f35b8161023e91611017565b61024957845f6101e4565b8480fd5b6040513d84823e3d90fd5b8280fd5b634e487b7160e01b86526011600452602486fd5b6102858130336001600160a01b0386166111c0565b610188565b610296843033866111c0565b610182565b60405162461bcd60e51b815260206004820152601f60248201527f437265646974496e746572636570746f723a207a65726f20616d6f756e7473006044820152606490fd5b50811515610178565b506001600160a01b0382161515610164565b80fd5b50346102fb5760203660031901126102fb57610318610f15565b610320611155565b60018060a01b03166001600160601b0360a01b600254161760025580f35b50346102fb5760203660031901126102fb5761036861035b610f15565b610363611155565b6110e4565b80f35b50346102fb57806003193601126102fb576003546040516001600160a01b039091168152602090f35b50346102fb57806003193601126102fb576005546040516001600160a01b039091168152602090f35b50346102fb5760203660031901126102fb576103d7610f15565b6103df611155565b6001600160a01b03166103f381151561104d565b81546001600160a01b03198116821783556001600160a01b03167f482b97c53e48ffa324a976e2738053e9aff6eee04d8aac63b10e19411d869b828380a380f35b50346102fb57806003193601126102fb576004546040516001600160a01b039091168152602090f35b50346102fb5760203660031901126102fb57610477610f15565b61047f611155565b60018060a01b03166001600160601b0360a01b600354161760035580f35b50346102fb57806003193601126102fb575f51602061128f5f395f51905f52546040516001600160a01b039091168152602090f35b50346102fb5760203660031901126102fb5760209060ff906040906001600160a01b036104fd610f15565b168152600184522054166040519015158152f35b50346102fb57806003193601126102fb57546040516001600160a01b039091168152602090f35b50346102fb57806003193601126102fb57610551611155565b5f51602061128f5f395f51905f5280546001600160a01b0319811690915581906001600160a01b03167f8be0079c531659141344cd1fd0a4f28419497f9722a3daafe3b4186f6b6457e08280a380f35b50346102fb5760403660031901126102fb576024356105be611188565b6105c9811515610fcb565b815482906001600160a01b0316803b156106725760405163970a459b60e01b815233600482015260026024820152604481018490529082908290606490829084905af1801561024d5761065d575b5050604051908152600435907fff27f1c3bd1641b9afb0f4992bd42efc3c2baad9e7b524dbe4e464f47bfa6ca160203392a360015f5160206112af5f395f51905f525580f35b8161066791611017565b61067257815f610617565b5080fd5b50346102fb5760403660031901126102fb57610690610f15565b610698610f2b565b5f5160206112cf5f395f51905f52549160ff8360401c16159267ffffffffffffffff811680159081610846575b600114908161083c575b159081610833575b506108245767ffffffffffffffff1981166001175f5160206112cf5f395f51905f52556107169190846107f8575b5061070e611263565b610363611263565b61071e611263565b610726611263565b60015f5160206112af5f395f51905f52556001600160a01b031680156107b45782546001600160a01b03191617825561075c5780f35b68ff0000000000000000195f5160206112cf5f395f51905f5254165f5160206112cf5f395f51905f52557fc7f505b2f371ae2175ee4913f4499e1f2633a7b5936321eed1cdaeb6115181d2602060405160018152a180f35b606460405162461bcd60e51b815260206004820152602060248201527f437265646974496e746572636570746f723a207a65726f2072656769737472796044820152fd5b68ffffffffffffffffff191668010000000000000001175f5160206112cf5f395f51905f52555f610705565b63f92ee8a960e01b8552600485fd5b9050155f6106d7565b303b1591506106cf565b8591506106c5565b5061085836610f41565b909291610863611188565b8315906108708215610fcb565b6001600160a01b03908116931691828414610a17578215610a0757610897853033866111c0565b84106109c257849083156109985750506108db60405163a9059cbb60e01b6020820152336024820152846044820152604481526108d5606482611017565b8361120b565b83546001600160a01b0316803b156102495784604051809263970a459b60e01b82523360048301528260248301528660448301528183606482800301925af1801561098d57610974575b506020935060405183815283858201527ff50a94d190fe173032fa8dd2678190438571b74c39f640f17454e9049382d23d60403392a460015f5160206112af5f395f51905f5255604051908152f35b61097f858092611017565b6109895783610925565b8380fd5b6040513d87823e3d90fd5b8482916109b8575b8280929181923390f16108db576040513d85823e3d90fd5b6108fc91506109a0565b60405162461bcd60e51b815260206004820152601b60248201527f437265646974496e746572636570746f723a20736c69707061676500000000006044820152606490fd5b610a12853414611099565b610897565b60405162461bcd60e51b815260206004820152601e60248201527f437265646974496e746572636570746f723a2073616d6520746f6b656e7300006044820152606490fd5b50346102fb5760403660031901126102fb57610a76610f15565b60243590610a82611188565b6001600160a01b031690610a97821515610f7f565b610aa2811515610fcb565b610aae813033856111c0565b825483906001600160a01b0316803b156106725760405163970a459b60e01b815233600482015260016024820152604481018490529082908290606490829084905af1801561024d57610b3e575b50506040519081527f04a18ba7b062b9ea521eeff5cd382b6830db5d69c2e8caefdff8303bb392269a60203392a360015f5160206112af5f395f51905f525580f35b81610b4891611017565b61025857825f610afc565b5060203660031901126102fb57600435610b6b611188565b610b76811515610fcb565b610b81813414611099565b815482906001600160a01b0316803b156106725760405163970a459b60e01b815233600482015260036024820152604481018490529082908290606490829084905af1801561024d57610c11575b50506040519081527fda0b0a80a641915c33062ae818bcc846b089f5b34600e6f0c19b7bc1f6c5a76860203392a260015f5160206112af5f395f51905f525580f35b81610c1b91611017565b61067257815f610bcf565b50346102fb5760203660031901126102fb57610c40610f15565b610c48611155565b6001600160a01b0316808252600160205260408220805460ff191690557f545a47f45f6f5fab1172cfde7faf3060e7d44c9d5808a2c80cfab52150b555338280a280f35b50346102fb5760203660031901126102fb57610ca6610f15565b610cae611155565b6001600160a01b0316610cc281151561104d565b808252600160205260408220600160ff198254161790557f5ec654392567a6e4d201b682c6ed6803d120c307fd0b8ba2cca51f73e36f43388280a280f35b50346102fb5760203660031901126102fb57610d1a610f15565b610d22611155565b60018060a01b03166001600160601b0360a01b600454161760045580f35b5034610e57576060366003190112610e5757610d5a610f15565b610d62610f2b565b604435610d6d611188565b6001600160a01b038316918215610e5b576001600160a01b031692610dab908290610d99861515610f7f565b610da4821515610fcb565b33866111c0565b5f546001600160a01b0316803b15610e57575f604051809263970a459b60e01b8252336004830152600460248301528460448301528183606482800301925af18015610e4c57610e37575b506040519081527ffb6922c5232663547b57814947948c731671c06fafcd9c49c1d02bfa21aa0f8460203392a460015f5160206112af5f395f51905f525580f35b610e449194505f90611017565b5f925f610df6565b6040513d5f823e3d90fd5b5f80fd5b60405162461bcd60e51b815260206004820152602160248201527f437265646974496e746572636570746f723a207a65726f20726563697069656e6044820152601d60fa1b6064820152608490fd5b34610e57575f366003190112610e57576002546040516001600160a01b039091168152602090f35b34610e57576020366003190112610e5757610eeb610f15565b610ef3611155565b600580546001600160a01b0319166001600160a01b0392909216919091179055005b600435906001600160a01b0382168203610e5757565b602435906001600160a01b0382168203610e5757565b6080906003190112610e57576004356001600160a01b0381168103610e5757906024356001600160a01b0381168103610e5757906044359060643590565b15610f8657565b60405162461bcd60e51b815260206004820152601d60248201527f437265646974496e746572636570746f723a207a65726f20746f6b656e0000006044820152606490fd5b15610fd257565b60405162461bcd60e51b815260206004820152601e60248201527f437265646974496e746572636570746f723a207a65726f20616d6f756e7400006044820152606490fd5b90601f8019910116810190811067ffffffffffffffff82111761103957604052565b634e487b7160e01b5f52604160045260245ffd5b1561105457565b60405162461bcd60e51b815260206004820152601f60248201527f437265646974496e746572636570746f723a207a65726f2061646472657373006044820152606490fd5b156110a057565b606460405162461bcd60e51b815260206004820152602060248201527f437265646974496e746572636570746f723a20696e636f7272656374204554486044820152fd5b6001600160a01b03168015611142575f51602061128f5f395f51905f5280546001600160a01b0319811683179091556001600160a01b03167f8be0079c531659141344cd1fd0a4f28419497f9722a3daafe3b4186f6b6457e05f80a3565b631e4fbdf760e01b5f525f60045260245ffd5b5f51602061128f5f395f51905f52546001600160a01b0316330361117557565b63118cdaa760e01b5f523360045260245ffd5b60025f5160206112af5f395f51905f5254146111b15760025f5160206112af5f395f51905f5255565b633ee5aeb560e01b5f5260045ffd5b6040516323b872dd60e01b60208201526001600160a01b03928316602482015292909116604483015260648083019390935291815261120991611204608483611017565b61120b565b565b905f602091828151910182855af115610e4c575f513d61125a57506001600160a01b0381163b155b61123a5750565b635274afe760e01b5f9081526001600160a01b0391909116600452602490fd5b60011415611233565b60ff5f5160206112cf5f395f51905f525460401c161561127f57565b631afcd79f60e31b5f5260045ffdfe9016d09d72d40fdae2fd8ceac6b6234c7706214fd39c1cd1e609a0528c1993009b779b17422d0df92223018b32b4d1fa46e071723d6817e2486d003becc55f00f0c57e16840df040f15088dc2f81fe391c3923bec73e23a9662efc9c229c6a00a2646970667358221220bd310c97de3c2b19da29061da58a79520834c7bf5731338680167b24a052c3d064736f6c634300081c0033f0c57e16840df040f15088dc2f81fe391c3923bec73e23a9662efc9c229c6a00",
  "linkReferences": {},
  "deployedLinkReferences": {},
  "immutableReferences": {},
  "inputSourceName": "project/contracts/CreditInterceptor.sol",
  "buildInfoId": "solc-0_8_28-ac550137ed7a43f0b5d35b4f631b61aff3cbae11"
}